:10000000805C0020E11F000089510000B51F000046
:10001000B51F0000B51F0000B51F00000000000064
:10002000000000000000000000000000811C000033
:10003000B51F000000000000B51F0000B51F000044
:10004000FD1C0000FD1C0000FD1C0000FD1C00004C
:10005000FD1C0000FD1C0000FD1C0000FD1C00003C
:10006000FD1C0000FD1C0000FD1C0000FD1C00002C
:10007000FD1C0000FD1C0000FD1C0000FD1C00001C
:10008000FD1C0000FD1C0000FD1C0000FD1C00000C
:10009000FD1C0000FD1C0000FD1C0000FD1C0000FC
:1000A000FD1C0000FD1C0000FD1C0000FD1C0000EC
:1000B000FD1C0000FD1C0000FD1C0000FD1C0000DC
:1000C000FD1C0000FD1C0000FD1C0000FD1C0000CC
:0C00D000FD1C0000FD1C0000FD1C0000D9
:1000DC0053B94AB9002908BF00281CBF4FF0FF31A3
:1000EC004FF0FF3000F00CB8ADF1080C6DE904CE08
:1000FC0000F008F8DDF804E0DDE9022304B07047F5
:10010C00704700BF2DE9F04786468C460846089E8E
:10011C00154674461946002B40F0C2808542B2FA4F
:10012C0082F245D94AB1C2F1200300FA02FC2EFA40
:10013C0003F3954043EA0C0C94404FEA154EA8B2D9
:10014C00BCFBFEF8230C0EFB18CC08FB00F943EAB1
:10015C000C43994528D9EB1808F1FF3704D299457F
:10016C0002D9A8F102072B44A3EB0903A4B2B3FBF9
:10017C00FEFC0EFB1C330CFB00F044EA0344A042D3
:10018C0014D92C190CF1FF3304D2A04202D9ACF1D2
:10019C0002032C44241A43EA07401EB1D440002326
:1001AC0034607360BDE8F0874746DDE76346F1E7EE
:1001BC0092BB431B01214FEA154EAFB2B3FBFEFCC1
:1001CC00200C0EFB1C330CFB07F840EA034398454C
:1001DC0062D9EB180CF1FF3004D2984502D9ACF17E
:1001EC0002002B44A3EB0803A4B2B3FBFEFC0EFBF2
:1001FC001C330CFB07F744EA0344A7424ED92C19D5
:10020C000CF1FF3304D2A74202D9ACF102032C4407
:10021C00E41B43EA0040C0E7C2F1200320FA03F1DB
:10022C00954090402EFA03F303434FEA154EAFB2BC
:10023C00B1FBFEFC0EFB1C10190C0CFB07F841EA81
:10024C000041884504FA02F422D969180CF1FF30F8
:10025C0004D2884502D9ACF102002944A1EB080173
:10026C009BB2B1FBFEFC0EFB1C110CFB07F743EA27
:10027C0001439F420ED9EB180CF1FF3104D29F427F
:10028C0002D9ACF102012B44DB1B41EA004192E79D
:10029C006046E3E76146F7E76046A3E76346B7E7E6
:1002AC00834206D916B9002108467BE7C6E900E06F
:1002BC00F9E7B3FA83F78FB9834201D3724508D8B3
:1002CC00BEEB020460EB030301209C461EB9002127
:1002DC0068E73846FAE7C6E9004CF8E7C7F1200CA6
:1002EC00BB4022FA0CF41C432EFA0CF120FA0CF34E
:1002FC00B84001434FEA14490EFA07F5B3FBF9F87D
:10030C001FFA84FE09FB18300B0C08FB0EFA43EAAB
:10031C0000439A4502FA07F240D9E31808F1FF307E
:10032C0004D29A4502D9A8F102002344A3EB0A0394
:10033C0089B2B3FBF9F809FB183308FB0EFE41EA4E
:10034C0003418E452CD9611808F1FF3304D28E4538
:10035C0002D9A8F10203214443EA0040A0FB029811
:10036C00A1EB0E014145CE46434602D306D14D4585
:10037C0004D2B9EB020E68EB04030138002EA6D0B0
:10038C00B5EB0E0261EB030101FA0CFC22FA07F348
:10039C004CEA0303F940C6E9003198E74046C5E74B
:1003AC004346D9E7F0B52E4B2E4AC3F800262E480B
:1003BC00C3F8042685B0C3F808264921C3F80C26D7
:1003CC00C3F81026C3F81426C3F81826C3F81C2645
:1003DC0004F04EFE00F078F801A800F0E7FC234B87
:1003EC001B68834204D02248452104F041FEFEE7FD
:1003FC00039A2048492104F03BFE1F48492104F090
:10040C0037FE4FF44041002005F005F9044620B1B9
:10041C001A48452104F02CFEFEE769469DF80800B9
:10042C0000F030F8009B039D1D44019B1E8902F0D7
:10043C005FFEAF1900F0D6FF00F0AAFF01F006FE38
:10044C00AB5983F3088884F31488BFF36F8FBFF321
:10045C006F8F7B6898470A48452104F009FEFEE738
:10046C00000001403546526E5C75000058010020BA
:10047C007575000098750000C7750000EC750000DC
:10048C001F76000008B5024638B105480023452107
:10049C0004F0EEFD6FF0150008BD0860FCE700BF2E
:1004AC004276000021B1012906D06FF0150070478B
:1004BC00044B53F830007047024B03EBC0035868F1
:1004CC00704700BF6872000002484FF4C05103F03F
:1004DC00A3B800BF100F00202DE9F04FF9B0DDE9F3
:1004EC008489DFF8BCB1869FDBF8005038A816462B
:1004FC001C4606F0F4FB002138A803F0A1F9B8F172
:10050C00000F07D0B9F1000F04DD4A46414638A868
:10051C0006F0E9FB33897289D6F80CA013449A448F
:10052C004FF00008C24544D80DA938A806F01FFCAE
:10053C0027B120220DA9384604F03EFE002300937B
:10054C0022464FF6FF73314607A804F06FFA804637
:10055C0060BB20460C9E00F0D9F9864226D8DFF805
:10056C0044914FF0FF370DF1160305AA06A907A811
:10057C0004F0AAFA002819DB40F08A80BDF8166056
:10058C00102E2ED1BDF81460202E0FD106993346B3
:10059C0038AA204604F07AFD40B9324638A90DA895
:1005AC0004F0DEFA404B1B68834217D0DBF8005096
:1005BC0071E0839B829AAAEB0809994528BF99465A
:1005CC004B464146204604F061FD0028EED182994D
:1005DC004A4638A806F087FBC844A3E74FF0010849
:1005EC00C1E7012E35D1BDF81430202BDED8069989
:1005FC0038AA204604F04AFD07460028D6D19DF8BB
:10060C0014A0BAF1200F02D94FF0FF37ABE7D9F89D
:10061C000030264E0393039B9F42F5DA1DA806F08B
:10062C005EFB00211DA803F00BF9726856F8081B3D
:10063C0012681DA806F057FB15A91DA806F097FB1C
:10064C00524638A915A804F0A7FD00288BD0013715
:10065C00E1E7202E87D17B1C85D0D9F80030BB4236
:10066C00D2DDBDF81430B3F5807F9FD1069938AA3E
:10067C00204604F00BFD002898D1FFB2BDF81430D1
:10068C00009738AA31460DA800F012F80546BBE7D2
:10069C00B8F1000F8AD0284679B0BDE8F08F00BFC2
:1006AC0004000020707200005801002074720000D9
:1006BC002DE9F04FDFF8D4A1ADF54D7D074629A803
:1006CC009DF858B3DAF800501E468946904606F05D
:1006DC00C1FA0422012129A803F02EF86C4B53F81F
:1006EC003B40049403EBCB038CAA5B681B681C4453
:1006FC002146302304A805F0D4F8002840F0BE8031
:10070C00049B8C9A13449C4240F0B8802BAA21463F
:10071C0004A805F0DAF8002840F0B0800DF1B80B11
:10072C005A46214604A805F0D0F80390002840F062
:10073C00A5802BA805F0BFF9049A2A90944240F0AA
:10074C009D80039BCDF804B000931A462BA929A8D1
:10075C0006F03DFA002840F0918029A803F002F839
:10076C00002840F08B802BA805F0A5F92A9029A829
:10077C0006F07AFA864240F08180B6F5807FDAF88E
:10078C0000507BD1B9F1200F78D18CAA414629A811
:10079C0003F00EF80446002870D19DF82F33BC2BC3
:1007AC006CD105900DF5A879DF260EA806F097FA06
:1007BC0000210EA803F044F820220DF20F310EA8F0
:1007CC0006F091FA042205A90EA806F08CFA06A9E7
:1007DC000EA806F0CCFA202E9DF81730B046A8BF14
:1007EC004FF0200801334846424606A9A6EB0806FE
:1007FC008DF8173004F0E0FC002EC144D5DC54AB6E
:10080C008CAA184600219C46067812F801EB01319F
:10081C0086EA0E06DF2900F8016BF5D11A7802F092
:10082C007F021A7013F8016B46BB0134BE2CF9D150
:10083C009CF8BE30012B21D10EA806F050FA31469F
:10084C000EA802F0FDFF134908220EA806F04BFA81
:10085C00394620220EA806F046FA20220DF20F216E
:10086C000EA806F040FA06A90EA806F080FA20227F
:10087C000DF20F3106A804F073F9054629A806F00D
:10088C00F5F928460DF54D7DBDE8F08F04000020EC
:10089C007472000068760000094A0B78400052F828
:1008AC0020108B4209D0013052F82000834214BF33
:1008BC004FF0FF304FF4C07070474FF4C07070476A
:1008CC007C7200001FB50F4B13F830000C4601F082
:1008DC00FFF850B92068816810236A46103904F07B
:1008EC00D5FB28B1206804F0D0FB4FF0FF3006E0B8
:1008FC0005491022684604F04FFC0028F2D104B0E0
:10090C0010BD00BF7C7200004C75000013B504468E
:10091C0004F02DF96A460146204604F06EF830B119
:10092C000448452104F0A4FB002002B010BD00983F
:10093C00FBE700BF707600002DE9F041364B88B024
:10094C00064600200D461C68FFF7ACFD06A9C0B298
:10095C0001F0BEF8002858D12946FFF7A3FD2C243E
:10096C0007A9C0B204FB056401F0B2F8002833D02B
:10097C002C276F4306EB0708069BD8F8101011F0D4
:10098C00100138D14FF480720192244A0092CDE9C3
:10099C000311224602910846FFF79EFD0446204BA8
:1009AC00F25906989A420CD1D8F80C20B8F80830B5
:1009BC009B1806D28268934203D21A4B1B68A3423F
:1009CC0020D035B38268002104F08AFB164A174800
:1009DC00452104F04DFB13E0079804F09CFB0746FF
:1009EC00079804F052FB631EE21C13F8011FB94276
:1009FC00BED19342F9D11DB10699304604F0A1F94C
:100A0C000B4B1C68069804F040FB204608B0BDE870
:100A1C00F081084ADBE700BF04000020102700200B
:100A2C003DB8F39658010020B3760000BD76000067
:100A3C0000000020AB7600007FB50D460446002177
:100A4C002846CDE9021104F03BF928B32368194E6E
:100A5C00B34203D103AA204604F0C7F8E36AB342B9
:100A6C0004D102AA0121204604F0BFF8DDE90232CC
:100A7C00934288BF0393039BAB60039A294620469D
:100A8C0000F08EFB0C4B1A68002A03DD0B48572133
:100A9C0004F0EEFA04B070BD01A9FFF713FF019842
:100AAC0005F1080104F06EF8AB680198039304F0AB
:100ABC00ECFAE2E73DB8F396BC0D0020E5760000B9
:100ACC002DE9F84FDFF870B01C4C1D4D884691464F
:100ADC009A4600260B9B9E4201D300200FE00B9BF5
:100AEC00154A9F1BB7F5806F28BF4FF480673B46B4
:100AFC0006EB0A01404604F0C9FA10B10120BDE82A
:100B0C00F88F0A993B465A467118484604F0D3FAB6
:100B1C000028F3D1C4F800563E44C4F80456C4F877
:100B2C000856C4F80C56C4F81056C4F81456C4F839
:100B3C001856C4F81C56CDE75C0900200000014093
:100B4C003546526EF0B5904B43620E468F4B0365A3
:100B5C00002187B004460846FFF7A4FC04F12001ED
:100B6C00C0B200F0B5FF01210020FFF79BFC04F19F
:100B7C004C01C0B200F0ACFF204604F077F80546FB
:100B8C0068B900221146204604F019F8054600B356
:100B9C007F480022572104F06BFA012390E07D4836
:100BAC008022572104F064FA01239D4284F85830C6
:100BBC00E7D194F858308DF80F30042B00F2838075
:100BCC00012B00F2878000F09A80FF2384F85830C4
:100BDC0095E0204600F0FCF90028DED002A804F0D5
:100BEC0066F80146204604F001F918B16A482A4615
:100BFC005721D0E702A804F063F880F0010102AAA3
:100C0C00C9B2204603F0DBFF02460028C0D102A87F
:100C1C0004F056F8054660BB02A92046FFF70CFF0E
:100C2C009DF80F3084F85830033B012B06D828462A
:100C3C0000F0E2F810B1FF2384F858309DF80F3023
:100C4C00023B022B0BD8002000F0C0F838B1FF2378
:100C5C0084F858305148452104F00AFAFEE794F81C
:100C6C005830FF2BF6D002AA0021204603F0A7FF34
:100C7C0093E79DF80F70012F17D1104602F0C6FABA
:100C8C00831E022B05460DD839462046FFF754FE2D
:100C9C00434B1B68984205D0424B1D68A84214BFB9
:100CAC000525012584F8585083E701212046FFF7DC
:100CBC0043FE3B4B1B6898420CBF9DF80F3005233D
:100CCC0084F8583075E7052B7FF47FAF002000F0D7
:100CDC0093F811E002A92046FFF7AEFE94F85830C5
:100CEC00DA1E012A14D8002000F086F800287FF4C0
:100CFC006CAF002000F06AF800287FF466AF94F81F
:100D0C005830FF2B07D12548452104F0B1F9FEE7F7
:100D1C00022BF4D1EDE70021012B234D019113D0CF
:100D2C0002AA204603F04BFF70B12D68102200215F
:100D3C0002A804F04CFAE06C04F0A7F9206A04F065
:100D4C00A4F9284607B0F0BD00212046FFF7F4FDBA
:100D5C00134F3B689842E8D12B689842E5D0114B71
:100D6C001B689842E1D0019B01330193019B012B3D
:100D7C0000D0FEE7206A03F03EFE3071236A5B6808
:100D8C0034603D68B360D1E75C0500205C01002055
:100D9C00567700001477000082770000AC770000D3
:100DAC0058010020000000200400002038B5064D3A
:100DBC00044660220021284604F009FA2146284600
:100DCC00FFF7C0FE38BD00BF5C0D002013B5094B0A
:100DDC0001A913F8300000F07BFE48B9019804F02B
:100DEC000CFD0446019804F050F9204602B010BDE9
:100DFC000124FAE7847200001FB50F4B01A913F808
:100E0C00300000F065FEA8B9019802A902F0A8F91B
:100E1C00044668B99DF80B30032B03D1019804F0FC
:100E2C00BAFC0446019804F030F9204604B010BD19
:100E3C000124F7E70124F8E7847200002DE9F3415F
:100E4C0006460C4617461D460BB9002628E01846E8
:100E5C0003F036FF0028F8D16946FFF733FD009800
:100E6C0038B90124009804F010F9204602B0BDE80E
:100E7C00F08101A903F086FE0028F2D1009804F05D
:100E8C0004F93046019903F0EDFF736A5E686B79E3
:100E9C00012B21D1002CD8D12B68834298BF00267E
:100EAC0021460020FFF7FEFA6946C0B200F010FEA2
:100EBC000028D6D1009820233A46314604F0E6F8B3
:100ECC0004460028CDD1002DCCD03C680D4BE41A43
:100EDC0018BF4FF0FF34C5E7022BB6D12B68012B9E
:100EEC0005D98342B1D8B4FA84F46409ADE7ACD126
:100EFC00002CD5D0012CA8D12C79023C18BF012490
:100F0C00A3E700BF3DB8F3962DE9F04F074685B037
:100F1C000C46014600201646FFF7BEFC051E50DBB2
:100F2C003846E46D03F023FE5FFA84F96B1E09FB6F
:100F3C0003084FF0000A4FF0010B4FF0FF349DB93E
:100F4C00BAF1010F03DD2148452104F091F8631C2F
:100F5C0006D07F2C2ADC013440F201133460B380BC
:100F6C00284605B0BDE8F08F6B1E00930DF10F0203
:100F7C0001234146384604F089F8031E019322DB15
:100F8C0001220DF10F01384604F0A0FB019B40B18A
:100F9C005B4501D00AF1010A009DA8EB09089B46AC
:100FAC00CDE7B4F1FF3F08BF2C46F5E70223803CA8
:100FBC007371631004F00104013301343360347134
:100FCC00CEE70725CCE70125CAE700BFB8770000BC
:100FDC0038B5816A426D914208D0531C8B4205D0C2
:100FEC001348572104F044F8002038BD80291CD93F
:100FFC0010485721F6E7446A056D04EBC30405EB72
:10100C00C30564686D68AC4202D00B485721E9E710
:10101C0001339A42EFD1914205D9436A03EBC203E3
:10102C005B68A342F1D10120DFE700231C46F0E707
:10103C00DB770000137800004278000000B589B01F
:10104C0004A9022004F0B4FB9DF81020012A41D021
:10105C00254B2649032A08BF0B469DF81320029204
:10106C009DF8122001929DF81120214800924921EF
:10107C00204A03F0FDFF06A9052004F099FB9DF81A
:10108C001820012A28D0184B1849032A08BF0B46F0
:10109C009DF81B2002929DF81A2001929DF81920B0
:1010AC0000921348144A492103F0E2FF9DF81030D6
:1010BC00012B13D19DF81230032B0FD19DF8183052
:1010CC00012B0BD00D48492103F0D2FF022009B0AF
:1010DC005DF804FB0A4BC0E7094BD9E709484921E5
:1010EC0003F0C6FF0020F2E76E780000777800006E
:1010FC008B7800007D780000CC780000DC78000054
:10110C0072780000FB78000070B54B6814461E4ADC
:10111C0003F0FF23934286B006460D462FD10B6891
:10112C00012B2CD104A9204602F01AF89DF81020AE
:10113C00012A26D0154B1649032A08BF0B469DF8E9
:10114C00132002929DF8122001929DF8112000921A
:10115C001048114A492103F08BFF9DF81030032BE6
:10116C000DD12146304603F0ECFD204604F013FB74
:10117C00A968204603F014FD204601F0D1FF06B00B
:10118C0070BD064BDBE700BF000100046E78000069
:10119C00777800008B780000CC7800007278000023
:1011AC002DE9F04F164689B005460C467448492186
:1011BC0003F05EFF3146284603F054FE6B6A82460C
:1011CC0020465E6803F07CFDE8B1E86D03F0CAFCD4
:1011DC00AF6A0023013F3344834201D2013FFAE757
:1011EC00BA4510D36748572103F042FF07FB06F3BB
:1011FC0065480AFB0662572103F03AFF0123E371AD
:10120C0009B0BDE8F08F06A9022000F061FC07A927
:10121C00052000F05DFC079A21462846FFF774FF75
:10122C006379012B4BD1DFF864B1574641E022685A
:10123C00C2F1010353449F423AD86B6A196853F8C0
:10124C00370003EBC703012A53F8083CA3EB010357
:10125C00A0EB0109049311D1079B0393E368022BC4
:10126C0008D04146284603F06CFD224641462846EC
:10127C0003F09DFD0399284603F063FD3246494671
:10128C00404603F05CFD049B42464146CDE9009686
:10129C002846FFF715FC2146284603F01EFD23685F
:1012AC000133236020B1DBF800300133CBF8003080
:1012BC00013FDDF81880002FB9D1012323600223F0
:1012CC0063710127BA45DDF8189006D2484603F041
:1012DC00DCFE079803F0D9FE92E723689F424DD3BA
:1012EC006A6ADDF81CB052F837100491FB00083B19
:1012FC0011680391D1582A6DD0581368A0EB0308DC
:10130C002379012B38D1039B3246C91A48460591E3
:10131C0003F015FD0599009143464A46594601963E
:10132C002846FFF7CDFB2146284603F0D6FC0223C6
:10133C00237118B1154A13680133136032464146C4
:10134C00584603F0FCFCDDE9032349469B1ACDE922
:10135C0000865A462846FFF7B3FB2146284603F081
:10136C00BCFC2368013323600123237130B1074A8D
:10137C0013680133136001E0022BDFD00137A1E7C2
:10138C00127900003B7900006A790000BC0D002046
:10139C00BFF36F8F72B6124B4FF0FF32C3F8802041
:1013AC00C3F88420C3F88820C3F88C20C3F890209D
:1013BC00C3F89420C3F89820C3F89C20C3F880216C
:1013CC00C3F88421C3F88821C3F88C21C3F8902179
:1013DC00C3F89421C3F89821C3F89C21704700BF2F
:1013EC0000E100E0134A4FF0FF3301215160C2F8D5
:1013FC004833C2F8083302F5C0425160C2F8483392
:10140C00C2F8083302F598325160C2F84833C2F87A
:10141C000833A2F508320021C2F80015C2F80833CF
:10142C0002F5E832C2F808354FF08042C2F80833B2
:10143C00704700BF00B00040014B1B68184700BF4D
:10144C0008000020014B1860704700BF0800002006
:10145C0007B50B46002102460091034800F014F931
:10146C0003B05DF804FB00BF451400002DE9F04704
:10147C00058B04462807904611D4022905F0070570
:10148C0040F0CD80204603F019FD78B10138218B56
:10149C00042811D8DFE800F0C3106D8595000129F0
:1014AC000CBF45F0100545F02005258388F3118805
:1014BC00BFF36F8FBDE8F08701F0070AAA4500F073
:1014CC00A6800027B9463E46A368002B00F0BD80DD
:1014DC0041F00801218388F31188BFF36F8FA16855
:1014EC00002900F0BB800D68002900F0B780D1F80E
:1014FC000480334652462046C047002D76D02B68D8
:10150C0029461D46F0E701F007035A1F012A1BD894
:10151C00002221F00701062B276889B2C4E90022BA
:10152C0009D13B4603E0628B013262831B68002BBE
:10153C00F9D141F002012183204603F0BFFC0028C1
:10154C007BD041F0200177E0042B0AD121F0070178
:10155C0089B22183204603F0B1FC10B141F0200187
:10156C002183218B01F0070AAA4550D00027B946E8
:10157C00AAE7236921F0070141F00601062DD3F8F3
:10158C00009021832DD1B9F1000F40D041F008011A
:10159C00218388F31188BFF36F8F3A492046C847DF
:1015AC0029E021F00701236941F0040189B2042DDF
:1015BC00D3F804902183E6D000273E464FF0040A6E
:1015CC0082E721F00701236941F0050189B2052D5D
:1015DC00D3F808902183D6D000273E464FF0050A59
:1015EC0072E700273E464FF0060A6DE72B4687E769
:1015FC00B9F1000FD1D14FF02003EFF3118883F331
:10160C001288BFF36F8F238B23F008032383258B62
:10161C00EA062ED525F01003238305F0070566692D
:10162C00218B002EBFF66FAF00232768C4E900336F
:10163C0021F0070141F001012183218B01F0070A00
:10164C00AA454FF000097FF43FAF002F9BD041F02B
:10165C000801218388F31188BFF36F8F002FC7D047
:10166C003D68394633465246204603F053FC2F461C
:10167C00F4E7AB067FF51AAF25F02003238305F0C2
:10168C000705FFE64D4F00002DE9F04F8DB01D46CC
:10169C00531E8246019103934FF00009039B587827
:1016AC00252803F1010419D11E4600204FF0FF3804
:1016BC00023603460290444631780396392954D8B1
:1016CC001F2914D8002900F0EE8101992520D0475C
:1016DC0001993078D04709F10209DFE7002800F0C2
:1016EC00E2810199D04709F101090394D6E7A1F1F0
:1016FC002002192AE9D801A757F822F07117000027
:10170C00D7160000D716000071170000D71600007E
:10171C00F1170000D7160000D7160000D7160000EE
:10172C00D71600003D18000071170000D7160000F6
:10173C0051180000FD170000D71600000B18000010
:10174C002B1800002B1800002B1800002B18000081
:10175C002B1800002B1800002B1800002B18000071
:10176C002B18000008460136A6E7582900F0EB803C
:10177C00A1F16302D7B2172FA7D8172AA5D801A7B2
:10178C0057F822F0F919000077180000D71600005E
:10179C00D7160000D7160000571800007718000065
:1017AC00D7160000D716000057180000D7160000F7
:1017BC00D7160000D71600002D190000D716000010
:1017CC00D7160000CD190000D716000077180000BE
:1017DC00D7160000D71600002D190000D7160000F0
:1017EC005718000001992520D04709F1010955E748
:1017FC00029A02F0FE0202924FF00008B3E7002CAE
:10180C000DDAB8F1000F0DDA029A002A00F04381CC
:10181C0024EAE4740A2202FB0414303CA3E7B8F176
:10182C00000FF5DB0A2202FB0812A2F130089AE73E
:10183C00B8F1000F55F8042B80F22F81002A80F2AA
:10184C002E815442022202928DE7682903D1682B23
:10185C0006D1482387E76C2902D16C2B00F021813B
:10186C00002B7FF432AF0B467DE77A2B06D175291E
:10187C0055F8046B14D14FF0000B0CE06C2BF6D028
:10188C004C2BF4D1073525F007037529D3E9006BF0
:10189C0003F1080506D120283BD1854F013C09E016
:1018AC004FEAE67BBBF1000FF5DA7642814F6BEB2A
:1018BC004B0B013C0DF12D03059300230493304693
:1018CC0059460A220023FEF703FC059B303203F82D
:1018DC00012DB4460593049B5A46BCF10A0F8B4666
:1018EC0072F1000203F1FF3106460491E7D2C3F115
:1018FC00010B30330DEB0306B8F1000FA6F1040613
:10190C006DDA029BD9077DD4A8EB0B03A4EB0B0477
:10191C0013E02B280ABF684F684F04F1FF34C9E766
:10192C0070290FD155F8042B0023FAB9634F644E7C
:10193C00053C6FF004034FF0050B029A920770D42C
:10194C00A04666E078216C2B03D155F8042B0023BC
:10195C0008E04C2BF9D1073525F007031D465B68D1
:10196C0055F8082B232825D1880621D5554F023C44
:10197C0001F06001A1F1390B0DF12D0E002602F0E2
:10198C000F01092988BF594430310EF8011D102A66
:10199C004FEA121141EA03714FEA131C73F1000371
:1019AC0006F1FF3008D2C6F1010B06F13003A1E7B6
:1019BC00454FDCE7414FDBE706460A466346DEE768
:1019CC0055F8046B304603F0E0FBB8F1000F83468A
:1019DC0002DB4045A8BFC346384F4FF00008A8EBC8
:1019EC000B03002B92DDA4EB0804A6E755F8043B8F
:1019FC008DF81830314F013C4FF0FF334FF0010B95
:101A0C0006AE9AE7A046EAE7029301992020D04758
:101A1C00029BB8F10108F7D524EAE472013C914429
:101A2C00A41AB84606E0049302920199D047029A90
:101A3C00049B9046424612F8010B0028F3D11A463B
:101A4C00013A15D5002BACBFC7EB03077F425B46B1
:101A5C00013B15D5BBF1000FA8BF5F444F44264690
:101A6C00013E14D5002CA8BF3F1907EB080915E659
:101A7C000493029201993020D047049B029ADFE72D
:101A8C000293019916F8010BD047029BE0E70199EC
:101A9C002020D047E4E70122D5E6904663E61446C1
:101AAC0061E64C235FE648460DB0BDE8F08F00BF01
:101ABC00BC7A0000BA7A0000BE7A0000B77700004A
:101ACC00C67A0000C07A0000C37A000001F0DCBFC7
:101ADC0070B5114B1C680D46DCB1104B1968002316
:101AEC008B4202DB6FF0010070BD224612F8106BC6
:101AFC00864202D001331446F2E7E06810B96FF069
:101B0C001200F1E705F05DFA0028F8D02C600020F7
:101B1C00EAE76FF00C00E7E70C0000209072000081
:101B2C0070B588B005460C46C0B269461646FFF73C
:101B3C00CFFF00281BDB0098C8B143680293836871
:101B4C0022680195CDE903360023CDE906230593E0
:101B5C00C56803F09AFA6DB12846084901AA03F04A
:101B6C004EFC079808B9059B236008B070BD6FF058
:101B7C001500FAE76FF01200F7E700BF31510000D3
:101B8C00014910220A60704710ED00E072B649401E
:101B9C0081F31188BFF34F8F20BF80F3118862B699
:101BAC00704700BF40B2002807DB044A41090123FB
:101BBC0000F01F00834042F82130704700E100E044
:101BCC0040B200280CDB4309064900F01F0020330B
:101BDC000122824041F82320BFF34F8FBFF36F8F58
:101BEC00704700BF00E100E0054B420900F01F0008
:101BFC0053F82220012303FA00F01040704700BF75
:101C0C0000E100E040B20028A8BF00F1604001F103
:101C1C000101B8BF064B4FEA4111ACBF00F5614062
:101C2C0000F00F00C9B2B4BF195480F8001370470C
:101C3C0014ED00E030BFFFF7FDBF00BF0B4A08B545
:101C4C000B4B22F07F029A60BFF34F8FBFF36F8F65
:101C5C00D3F8882022F47002C3F8882002F0B4FD77
:101C6C0002F0FAFD00F0AAF902F0BAFD0000000043
:101C7C0000ED00E01EF0040F0CBFEFF30880EFF353
:101C8C000980816911F8021C0229FFD001B503F00B
:101C9C006DFA01BD10F1160F074B08D0984208D30E
:101CAC004033834205D98B4203D9044870474033F3
:101CBC00F9E70020704700BF80340020C0340020BA
:101CCC0004462025084611461A46084B83F309881A
:101CDC0063B64FF0000383F31188BFF36F8FA047F7
:101CEC0085F31188BFF36F8FFEE700BFC05C002047
:101CFC0001B5EFF30580A0F110004FEAC0000449D4
:101D0C00014409C99847BDE8014002490847000051
:101D1C00B8700000251D0000704700BF70B5264B41
:101D2C0015469A6A12F0100F9A6A14BF11241024E7
:101D3C0012F0080F9A6A18BF1224920706460AD5A9
:101D4C00586B9A6A140634D519B19A6A22F080023B
:101D5C009A62132401E06FF01500174B9A6A12F087
:101D6C00010F9A6A18BF142412F0200F9A6A18BF38
:101D7C001524D20602D49B6A9B070AD50E4B5B68CE
:101D8C00190506D53146FFF785FF10B180F3098898
:101D9C000224094B9A6A920642BF5A6A22F40052F4
:101DAC005A629A6A42F0FF029A6200232B70204614
:101DBC0070BD6FF01500CCE700ED00E0134B9A6A94
:101DCC0012F0007F9A6A14BF1E201D2012F0807F33
:101DDC009A6A18BF1F2012F4002F9A6A18BF21208C
:101DEC0012F4802F9A6A18BF222012F4003F9A6ACC
:101DFC0018BF232012F4803F9A6A6FEA02426FEAFE
:101E0C0012429A6218BF2420704700BF00ED00E018
:101E1C0010B5194B0246986A9C6A10F4805F14BF87
:101E2C001720162014F4006F9C6A18BF1820A40504
:101E3C0009D5986B986A000404D51AB19A6A22F4F1
:101E4C0000429A6219200C4B9A6A12F4806F9A6ABB
:101E5C0018BF1A20D2050CD49B6A13F4005F18BF6C
:101E6C001C20054A936A43F47F43936200230B7052
:101E7C0010BD1B20F5E700BF00ED00E070B5454B31
:101E8C005B688AB00546C3F30803002686F3118805
:101E9C00BFF36F8F02F07F40B0F17F4F11D102F092
:101EAC000C0008280DD010074CBF0D46012600224F
:101EBC00033B8DF80720032B05D8DFE803F01E5DEC
:101ECC00615A3546F3E700249DF807309BB9202270
:101EDC00294602A803F070F9099B002E54D0C3F3D5
:101EEC00080222B96FEA53236FEA4323099302A92C
:101EFC00204603F039F90AB070BD264BDA6A910717
:101F0C00E1D4DA6A002ADEDBDA6A5200DBD55A69E0
:101F1C00A96942F480725A61BFF34F8FBFF36F8F80
:101F2C005A6931F8021C22F480725A61BFF34F8F48
:101F3C00BFF36F8F4DF6027291420AD09A6AD2B2F9
:101F4C004AB10DF1070201212846FFF7E7FE0446CE
:101F5C00BAE72C68B8E79A6A12F47F4F05D00DF1F6
:101F6C0007010120FFF754FFF1E79B6AB3F5803FAF
:101F7C00A9D3FFF723FFEAE70DF107020021E3E7FE
:101F8C000DF107010020EDE723F4FF7323F00103AB
:101F9C00ACE700BF00ED00E0024A536943F01003C8
:101FAC005361704700ED00E0EFF30880EFF3098117
:101FBC0001B57246FFF762FF01BD00BF0448002364
:101FCC002021C2180133272B82F80013F9D1704756
:101FDC0000E100E0002080F31488BFF36F8FFFF75F
:101FEC0075FD00200D490860BFF34F8F0C4880F33E
:101FFC00088800F03DF8202080F3118809484FF440
:10200C000461401880F30988EFF31480022108431F
:10201C0080F31488BFF36F8FFFF710FE94ED00E090
:10202C00805C0020402C0020BFF34F8F0549064BED
:10203C00CA6802F4E0621343CB60BFF34F8F00BF5A
:10204C00FDE700BF00ED00E00400FA050749D1F8F8
:10205C0090200023C2F307221846934200DB7047FE
:10206C00C1F89830C1F8A0000133F6E700ED00E0AC
:10207C0008B572B6002383F31388FFF7E7FF144B00
:10208C004FF0FF32C3F88020C3F88420C3F88820B7
:10209C00C3F88C20C3F89020C3F89420C3F8982080
:1020AC00C3F89C20C3F88021C3F88421C3F888218D
:1020BC00C3F88C21C3F89021C3F89421C3F898215C
:1020CC00C3F89C2162B6BFF34F8FBFF36F8F08BD6F
:1020DC0000E100E0024B034A0348022100F060B823
:1020EC00000001200000002004730000F0B5204E19
:1020FC0000258D4239DA446874B353B104F1FF3CC6
:10210C0014EA0C0F2FD11F2C2DD907681CEA070FCE
:10211C0029D1202C0768D0F808C05FFA82FE1ED99E
:10212C00B4F1004F1DD8013CB4FA84F4C4F11F047F
:10213C006400BEF1070F4CEA040C14D827F01F04FE
:10214C00144344F01004C6F89820C6F89C404CF098
:10215C000104C6F8A040013201350C30C9E708244F
:10216C00E7E73E24E5E76FF015021046F0BD00BF2F
:10217C0000ED00E0044B0522C3F89420BFF34F8F11
:10218C00BFF36F8F704700BF00ED00E0BFF35F8FB0
:10219C00024B0022C3F89420704700BF00ED00E012
:1021AC0010B5034C01232278FFF7A0FF207010BD5F
:1021BC001028002014490868082810B521D8FFF70A
:1021CC00E5FF124C49680022904201F10C0105D147
:1021DC000F4B1870FFF7CEFF002010BDC4F89820ED
:1021EC0051F80C3C23F01F03134343F01003C4F8C5
:1021FC009C3051F8043C43F00103C4F8A030013288
:10220C00E2E74FF0FF30E8E71C73000000ED00E060
:10221C0010280020014B1860704700BF10000020F0
:10222C00044A0123C2F840354FF080420020C2F826
:10223C007835704700E0014020B1034B800143F03A
:10224C0001031847704700BF60720000084B70B55F
:10225C00C31A0D4607499B100446594306484022B1
:10226C0002F0DDFF2B4601462046BDE870401847C2
:10227C00D40D0020B76DDBB66870000073B50C4C44
:10228C000C4A4023041B00930D460B460A49A4102C
:10229C0061430646094802F0EEFF011E05DA30469E
:1022AC002B4602B0BDE87040184702B070BD00BFAD
:1022BC00D40D0020F3520000B76DDBB6687000003F
:1022CC0010B54FF02003EFF3118483F31288BFF3A2
:1022DC006F8F074A136823F00201DB07116002D4E9
:1022EC00012004F0F0FD84F31188BFF36F8F10BD53
:1022FC00240E0020002270B5012104461046FFF781
:10230C0081FC0F4801F0A8FD0E4B984215D104F04A
:10231C00CDFD26690C49304602F020FE00280BDB6F
:10232C00012535642469084904F11C0002F016FEED
:10233C00002801DBE564002070BD6FF00400FBE7B2
:10234C008D2300000000AD0B3C73000070B50146FE
:10235C000C2309484B43C418D4E90E5640330022D1
:10236C001844A26302F048FF2DB132462B460348B5
:10237C00BDE87040184770BDD40D00206870000097
:10238C0010B1012804D07047034B1B6C5B0701D1C3
:10239C00FFF7DCBF704700BFD40D002008B54FF02D
:1023AC002003EFF3118183F31288BFF36F8F124A6E
:1023BC00136843F002001060DA0708D481F3118827
:1023CC00BFF36F8F0120BDE8084001F055BD4FF001
:1023DC008043D3F80C24D3F80C34DB07EED5074834
:1023EC0002F00AFF81F31188BFF36F8F0020BDE864
:1023FC000840FFF7ABBF00BF240E0020140E0020D6
:10240C0010B5074C23782BB94FF4A57004F0D4FD0C
:10241C0001232370BDE81040002001F02DBD00BF4A
:10242C00112800202DE9F8433649BFF35B8F07468E
:10243C00012251E8003F41E800200028F9D1BFF308
:10244C005B8F33B9304931484B60CB608A6002F006
:10245C0098FD7B1E012B2DD8012F07D14FF0804307
:10246C00D3F81C3403F00303012B23D004F0C8FD74
:10247C00054608BB264B1B78F3B14FF08043022274
:10248C00C3F808230646DFF88C904FF080444FF0D9
:10249C000108D4F81824D4F81834D20316D503F054
:1024AC000303012B01D0012F10D12DB386F311881A
:1024BC00BFF36F8FBDE8F8834FF02003EFF3118665
:1024CC0083F31288BFF36F8F0125DCE73046FFF7EB
:1024DC005DFBD4F81835002BDBD1D4F80421002A8D
:1024EC00D7D0C4F80431D4F80431C4F81885C9F82D
:1024FC008081C4F80880CCE74FF080430222C3F8F7
:10250C000423D7E7D00D0020C00D0020F00D0020D3
:10251C00242C002000E100E008B5074804F051FD30
:10252C0038B10648FFF776FE0448FEF78BFF002013
:10253C0008BD6FF01200FBE7907000004D25000005
:10254C000A2838B5074D044604D1AB680D215B68E9
:10255C0028469847AB6803485B68E1B29847204629
:10256C0038BD00BF90700000024B0B60012313605C
:10257C00704700BF280E0020004870479073000081
:10258C0010B504F00EFD034C206004F006FD6060F5
:10259C00002010BD280E0020F8B50E463046194616
:1025AC0017461D4602F0ABFEB8B146EA050414F01E
:1025BC00030412D14DB12B19032BA6EB040006D842
:1025CC00074AD2F80034DB07FBD50020F8BD3B1BD3
:1025DC00043C196802F074F8EDE76FF01500F5E7AC
:1025EC0000E0014030B54068057B01F01F04B2F5F6
:1025FC00001F85B044EA451405D1204601F024FFA4
:10260C00002005B030BD0025B2F5800FCDE9025594
:10261C0014D1B3F1007F0CBF042305238DF80830CF
:10262C000023194602AA204601F042FD214B984294
:10263C0039D10121204601F0BBFEE1E7B3F1C06FB7
:10264C0026D0B3F1007F14BF012302238DF808308C
:10265C00836823FA01F111F00101E1D1B2F1A07FFD
:10266C00DED104F01F03620903F5E0731ED14FF0B5
:10267C00A04252F82330DB07D2D40DF107052946CE
:10268C00204601F041FE0C4B984203D00395C7E75E
:10269C000323DBE7284601F085FE064B9842F5D074
:1026AC006FF00B00ADE76FF01500AAE751F823307F
:1026BC00FFDE00BF0000AD0B0400AD0B10B501F048
:1026CC0061FE044668B901F035FE084B98420AD108
:1026DC000748214601F012FE224605210620FFF78D
:1026EC0091FA002010BD6FF00400FBE70000AD0B69
:1026FC0001270000430970B507D10B4B596821B174
:10270C0001250C68094E854001B970BD8A682A40C4
:10271C0002D04B68304698471CB1236821461C46B2
:10272C00F2E72346FAE700BF300E00207C70000071
:10273C002DE9FF4147683B7B01F01F0545EA431536
:10274C000E4628460DF10701144601F0DDFD14F488
:10275C00403F80460DD1284601F09CFE3D4B9845EC
:10276C0003D19DF8070001F017FE002004B0BDE86E
:10277C00F0810023194602AA2846CDE9023301F064
:10278C0097FC344B984214D1804503D19DF8070037
:10279C0001F002FEA3034ED540F206332340B3F5FD
:1027AC00837F1AD00DD8062B18D005D8B3B1022BC5
:1027BC0033D06FF01500D9E7B3F5807FF9D1012341
:1027CC000CE040F20222934229D0B3F5407F28D08E
:1027DC00B3F5007FEDD1022300E007238DF808301C
:1027EC0084F48033C3F30043E0068DF8093054BF02
:1027FC00C4F34013032321038DF80A3013D57A68F0
:10280C000123B340C2F80835002202A9284601F082
:10281C00FFFC104B9842A8D0CBE70423DEE705233E
:10282C00DCE70323DAE7620341BF01237A68B34094
:10283C00C2F80C35E8E7E3064FF0000354BFC4F3CD
:10284C00401403241A4602A928468DF8084001F0CA
:10285C002FFCDEE70000AD0BF0B5524D00EB810113
:10286C00814201D10020F0BD046804F07F03C4F361
:10287C0043267F2B4FEA144408BF4FF0FF33192C2B
:10288C007ED8DFE804F00D13191C1F251C7D7D7DFF
:10289C007D345D7D7D7D7D7D7D7D7D7D6074777AF4
:1028AC00C2F80C355F1C57D10430D9E7C2F8143587
:1028BC005C1CF9D0002458E0C2F80835F2E7C2F8E5
:1028CC001035F5E75F1CC2F80835EDD0002404E0A4
:1028DC005C1CC2F80C35E7D001245F0953D10127E9
:1028EC004FF0A04C07FA03FECCF80CE508E0C2F858
:1028FC000835002EDCD15C1CD6D0002427460626D9
:10290C00D0F800E00EF4005CBCF1000F1CBF0124F9
:10291C00002703F01F0C5B093DD14FEA8C0C0CF126
:10292C00A04CCEF3C11EDCF800372B4043EA8E03DB
:10293C0043EA06233B4343EA4403CCF80037B3E7AE
:10294C00C2F80C35D5E7C2F860355F1C0468ABD013
:10295C00C4F38034002CBFD05C0918D101244FF093
:10296C00A04704FA03FCC7F808C52746C8E7C2F815
:10297C006435EAE7C2F86835E7E7C2F86C35E4E796
:10298C006FF085006FE70023C3F80C35FFDE0023E2
:10299C00C3F80835FAE70CF5E07C002353F82C302B
:1029AC00F4E700BFF0F8FCFFF8B5044607690D46E4
:1029BC0004F026FB90B92C4B1B787BB16426606825
:1029CC0002F0D4FDE0B9012004F064FA013EF6D126
:1029DC00F4E786F31188BFF36F8FEFE74FF0200316
:1029EC00EFF3118683F31288BFF36F8F6068314663
:1029FC0002F0BCFD90B986F31188BFF36F8FEDE741
:102A0C004FF02003EFF3118683F31288BFF36F8F1F
:102A1C006068314602F0AAFD0028DAD03B691D70CF
:102A2C00626838691368C3F844050120C3F8480587
:102A3C000020C3F82001D3F82051C3F85801526884
:102A4C00D3F85801D20608D5626812680820C2F87B
:102A5C0000054FF48002C3F8042301229A6081F32D
:102A6C001188BFF36F8FF8BD242C002070B54B7903
:102A7C00012B20D18B79032B1DD1CD790DB1012DDB
:102A8C0019D10A7912B1022A15D10E220B684468A9
:102A9C00B3F5164F266864D02BD8B3F5165F63D008
:102AAC0014D8B3F5966F61D008D8B3F5967F60D083
:102ABC00B3F5167F60D06FF0850051E0B3F5166F5B
:102ACC005DD0B3F5965FF6D1374B3CE0B3F5E14FF3
:102ADC0058D007D8B3F5615F56D0B3F5964FEAD10D
:102AEC00324B30E047F61224A342E4D14FF40003FA
:102AFC0029E0B3F5613F49D013D8B3F5963F48D0E0
:102B0C0009D84DF6C024A34245D0B3F5614FD2D1BC
:102B1C004FF46B0317E0B3F5E13FCCD14FF0EB73FF
:102B2C0011E0B3F5612F39D008D8214CA34238D02D
:102B3C00B3F5E12FBFD14FF0E86304E01D4CA34285
:102B4C00B9D14FF080530469C6F8243543681B682B
:102B5C002A43C3F86C2503C9231D83E80300002016
:102B6C0070BD4FF41D03EEE7134BECE74FF49E23BF
:102B7C00E9E74FF4A033E6E74FF41C33E3E74FF4F7
:102B8C001D23E0E70D4BDEE70D4BDCE74FF06C73DC
:102B9C00D9E70C4BD7E74FF46503D4E74FF07063DC
:102BAC00D1E74FF08063CEE700B0130000A04E00D9
:102BBC0090D0030040420F000050270000C0750069
:102BCC0000F03A0000903A012DE9F74380460022CC
:102BDC0001210220FFF716F80220FEF7E3FFD8F8D8
:102BEC000470D8F810603C680021C4F80015C6F8D1
:102BFC000080D7F80C9001AA484602F081FC051E13
:102C0C004CDB019BD9F8002019791868FFF724FEDA
:102C1C00051E43DB311D4046FFF728FF0546002803
:102C2C003CD17B68990712D506F1180001F056FDCE
:102C3C001E4B984236D1307E04F10C0204F5907193
:102C4C0004F02AF9337E0120984001F09DF8082306
:102C5C00C4F800353B7A53B9C4F81031D4F81031AC
:102C6C007369C4F834350123C4F8383523607B68A4
:102C7C009A075CBF4FF48073C4F804337B68DB069F
:102C8C0044BF4FF48003C4F804333369C4F84435AB
:102C9C000023C4F848350123A360E360284603B041
:102CAC00BDE8F0836FF00405F8E700BF0000AD0B42
:102CBC0070B5012383400E4ABFF35B8FDC4352E8AF
:102CCC00001F01EA040542E80056002EF7D1BFF3BD
:102CDC005B8F4FF4803282400648C0F80823BFF364
:102CEC005F8FBFF36F8F0B4214BF0120002070BDAC
:102CFC00400E00200010014070B40E49D1E90034A0
:102D0C00D01AC31844F1000422F07F46C1E9003404
:102D1C00A6F50013B3F5400F09D2074B1B681A0A2E
:102D2C001B069C19054B42F10005C3E9004570BC1C
:102D3C0001F0F2BDC0000020440E0020C8000020AD
:102D4C0011B3BFF35B8F0123104A834052E800CFCD
:102D5C004CEA030C42E800C10029F7D1BFF35B8FAA
:102D6C000B4A4FF480338340C2F80433094BBFF352
:102D7C005B8F1B68BFF35B8FC340DB0742BF064B07
:102D8C004FF40032C3F80021704700BF400E002002
:102D9C00001001403C0E002000E100E00D4B1868D3
:102DAC00010A0006BFF35F8F0B4BD3F804351818DC
:102DBC0041F10001B3F5801F0AD2084BD3E900237F
:102DCC00904271EB030303D210F1807041F10001CA
:102DDC00704700BF440E002000100140C8000020C6
:102DEC002DE9F04F85B016461F469DF840A00446CD
:102DFC00FFF75EFF0190FFF7D1FFB04271EB0703C5
:102E0C0054D23E4B301A67EB0101984271F100012C
:102E1C004FD23B4B03EB0413D3E902239F4208BF71
:102E2C0096425ED037494FF4803804F1500508FAC9
:102E3C0004F8AD00C1F848832046ADB202F0DFFBC8
:102E4C0026F07F4B05F1804504F5A87305F5883510
:102E5C00DC464FF003090293029A2CF07F4341F8B1
:102E6C002230C1F84483D1F80435274A6FF00200B0
:102E7C00C01A604420F07F40904232D9286868B173
:102E8C00D1F804350393A3EB0B0020F07F40B0F591
:102E9C00000F26D9204602F0B2FB039BBAF1000FBB
:102EAC0007D109EB030C09F10109D5E7BAF1000FC1
:102EBC0009D06FF0150520460199FFF741FF284610
:102ECC0005B0BDE8F08F0123104ABFF35B8FA34020
:102EDC0052E8000F184342E800010029F8D1BFF373
:102EEC005B8F07490E98230101EB0412C8500F9B0E
:102EFC005360C2E902670025DDE700BF01008000D6
:102F0C00B000002000100140FDFF7F003C0E0020AF
:102F1C007FB51C4C1C4BC4F80833C4F848331B4B0E
:102F2C0000254FF0FF304FF0FF31C4F80855C3E9CE
:102F3C0002014FF48033C4F80433154B02264FF4CE
:102F4C0000320121C4F804631120C3F880212A4601
:102F5C00FEF758FE1120FEF725FE0E4A0123A36052
:102F6C00236013600C4B0D4A0093CDE901550023EF
:102F7C002846FFF735FF3046FFF754FA284604B0D1
:102F8C0070BD00BF0010014003000F00B000002016
:102F9C0000E100E0400E0020052D0000FFFF7F0047
:102FAC002DE9F7432F4CD4F8043399070BD5D4F8FB
:102FBC00043143B12C4A0023C4F80431D4F8043151
:102FCC00136801331360D4F80433DA032AD5BFF342
:102FDC005B8F264B53E8002F22F0010143E80010D1
:102FEC000028F7D1BFF35B8FD30702D4D4F840315C
:102FFC00C3B10025C4F84051D4F84031FFF7CEFEE0
:10300C004FF02003EFF3118283F31288BFF36F8F1D
:10301C00174BD3E90267B042B94106D282F311884B
:10302C00BFF36F8F03B0BDE8F0834FF0FF384FF064
:10303C00FF39C3E90289D3E900101D604FF48033D6
:10304C00C4F84833C4F84051D4F8403182F31188A5
:10305C00BFF36F8F0029E5D0009032463B462846DF
:10306C008847DFE700100140440E00203C0E002092
:10307C00B00000201FB5431C23D0012823DD134AC8
:10308C00134B9042D4BF04461C46FFF787FE114BEE
:10309C000F49D3E90023801AB0F5000F28BF002494
:1030AC0004448C4228BF0C46A2180B4900914FF0E7
:1030BC000000CDE9010043F10003FFF791FE04B0DD
:1030CC0010BD034CE1E70124DFE700BFFEFF7F00EA
:1030DC00FFFF7F00C0000020052D000008B5FFF7A2
:1030EC005DFE024B1B68C01A08BD00BFC00000206B
:1030FC0010B5084C012363601120FEF761FD064BEF
:10310C00C4F80833C4F84833044B4FF40032C3F806
:10311C00802110BD0010014003000F0000E100E011
:10312C0030B5816885B0103921F00704054601F0EF
:10313C00F2FF10220146684602F049F807491022B6
:10314C00684602F039F810236A462146284601F0F9
:10315C00B2FF003818BF012005B030BD4C7500001F
:10316C0030B50D46816887B0102302AA1039044689
:10317C0001F08CFF002802DA012007B030BD1022CC
:10318C0002A9204602F0A2FA00283AD11E491022C8
:10319C0002A802F001F800280CBF012302232B70B7
:1031AC00204602F07FFA012301460DF1070220466A
:1031BC0001F06CFF0028DFDB9DF8073003F00F02F5
:1031CC001B096A702B7101220DF10701204602F0D8
:1031DC007DFA10B96B78042B03D901236B70002393
:1031EC002B71A268183A22F00702083AA91C204653
:1031FC0002F07FFA0028BFD1E91C204602F0D2FA77
:10320C00BBE70323CBE700BF4C750000F0B5354F8F
:10321C00460085B00546694657F8260002F0C8FA04
:10322C00044610B1FF2005B0F0BD013602A957F8D5
:10323C00260002F0BDFA012837D12B482A46492135
:10324C0001F016FF294B02938DF80C409DF800609D
:10325C009DF80870264C00222078314602F028FA9E
:10326C0050B36078394602F023FA28B3A378042BC4
:10327C0003D09DF8031099421ED1E378042B03D0A0
:10328C009DF80B10994217D12379042B10D1627938
:10329C00022A1DD1174B18482A46492101F0E8FE95
:1032AC006079831E022BBED9BCE70028CED0B9E7CB
:1032BC009DF802109942EAD00132032A04F1060467
:1032CC00CAD10E482A46492101F0D2FE0120AAE7B4
:1032DC00032A05D00A4B0B49042A08BF0B46DAE730
:1032EC00094BD8E7147400008B7B00000301030327
:1032FC00207C00006D7B0000D67B0000FA7B000078
:10330C00727B0000847B0000687B0000014B1B6813
:10331C00184700BF38000020014B1B68184700BF3E
:10332C0034000020024B1860024B002019607047DB
:10333C0038000020340000200A4619B1024B00214D
:10334C001B681847704700BF3C000020044B1A79DB
:10335C000AB1824201D1186870470833F7E700BF01
:10336C001C74000001680E4A9142034615D1C169D4
:10337C00A2F11022A2F1EF1291420ED18268012A21
:10338C000BD8C26812B101698A4206D0586928B1BB
:10339C009B691B1A5842584170470120704700BF67
:1033AC0055AA00FF70B50D4B9E68A6B13046FFF7CD
:1033BC00D9FF044678B9F3686BB935690DB9204665
:1033CC0070BD2846FFF7CEFF28B9EB68B34202D197
:1033DC002E462D69F2E70124F1E700BF480E0020CC
:1033EC002DE9F8433F4F3C68D4B1BC68C4B1002808
:1033FC004AD0002948D001FB00F5B5FBF0F088421B
:10340C0042D1281D40D8A9070DD025F0030604365B
:10341C00FC6803E06368B34238D2A469002CF9D18C
:10342C002046BDE8F8832E46F2E7FB6041E006F14A
:10343C0020016318203A5A600022C3E902242A486A
:10344C0022691A6160502949D96102B1D36062695D
:10345C005A61A1699961AAB193619A6902B15361E8
:10346C004FF00109C4E9016923610023C4E9053364
:10347C003B69DB072ED5FFF795FF58B31C4B48462D
:10348C001B6826E0FB60E8E70024C9E7A3681BB1D2
:10349C00174B01201B6898476268921B232A04F182
:1034AC002008C4D80123A360D4E90523002ABCD08A
:1034BC009361A3690BB162695A610023C4E90533B6
:1034CC003B69DA0706D5FFF76DFF18B1084B1B688F
:1034DC00012098472A4600214046444601F077FED9
:1034EC009EE700BF480E002055AA00FF669911EE1A
:1034FC003000002070B50546002800F08880444E4E
:10350C003368002B00F08380B268002A7FD083429E
:10351C0003D872681344984203D33E4B01201B68B6
:10352C009847A5F120042046FFF71CFF18B1394B32
:10353C0001201B68984755F8183C012B03D0354BDC
:10354C0001201B689847002345F8183C55F8143C9B
:10355C003BB39A682ABB55F81C2C02F120015A681F
:10356C000A445A6055E905321A6155F8145C2B6906
:10357C0003B1DD6020220021204601F028FE2869DD
:10358C0010B18368002B2ED033699B073FD5FFF712
:10359C0009FF00283BD01F4BBDE870401B68012081
:1035AC00184755F8100C00282AD0836843BB426892
:1035BC00636813442033636003692361D4E90523F2
:1035CC009AB9CBB9436963618269A261B3B19C6159
:1035DC00A36903B15C61236903B1DC602022002183
:1035EC0001F0F5FDD0E72C46E1E79361A369002BD0
:1035FC00E8D062695A61E5E7F360F7E7F460E7E762
:10360C00F36845F8083C03B15C61F460BCE770BD3D
:10361C00480E00203000002038B514220C46054618
:10362C000021134801F0D3FD12491348FFF77AFE2D
:10363C00232C1CD915F003031FBF043CE418C3F161
:10364C000403ED1822460021284601F0C0FD084B6A
:10365C000A499D60C3E90054203C6C609A68116073
:10366C009A68DA60A1F11021A1F1EF11D16138BD96
:10367C00480E002001350000ED33000055AA00FF74
:10368C00F8B500F108064768044630460D4602F0CE
:10369C0012FA87424BD16368B3F5807F47D800217B
:1036AC00304602F000FB002841DD0021304602F0DC
:1036BC00EEF9E0B345B9294604F1140002F0F3FA2F
:1036CC00002834DD0020F8BD04F12C05002128462B
:1036DC0002F0E9FA00282ADD0021284602F0D7F989
:1036EC0028B304F138050021284602F0DCFA002842
:1036FC001DDD0021284602F0CAF9C0B1002104F1F9
:10370C00140002F0D0FA002811DD002104F144006D
:10371C0002F0C9FA00280ADD002104F1500002F081
:10372C00C2FA002803DD002104F15C00C6E7014861
:10373C00C9E700BF80BFFFFF012938B50546144615
:10374C0001D0074838BD22B90123C5E9293400202E
:10375C00F8E71046FFF7FAFD0028F5D1F1E700BFB6
:10376C0000BFFFFF70B500210446FFF789FF054637
:10377C0010B10E4D284670BD04F10806304602F01B
:10378C0096F97F28F5D914342946204602F07FF9A2
:10379C000028EED0204602F08AF90128E9D93146FA
:1037AC00204602F03FFA0028E4DBE2E700BEFFFF10
:1037BC00F0B50C4687B0002105461646FFF760FFB2
:1037CC00002839D103A802F0BBF821466A6803A887
:1037DC0002F077F9044618B103A802F0B7F80CE030
:1037EC0005F10804214603A802F01CFA002807DBA7
:1037FC0003A802F0ABF86FF00304A4F5854418E0BD
:10380C0005F1680303A96F68009305F114022346C0
:10381C00084602F023FD04460028DDD13A46314625
:10382C0003A802F064F9044603A802F08FF8002CF8
:10383C00E3D1204607B0F0BD004CFAE780BFFFFF94
:10384C0001292DE9F041034641D8224A224F234851
:10385C00234E244D244C9966002918BF9046234AC8
:10386C0018BF964602F1794202F5740202F5016224
:10387C0018BF94461E4A18BF17461E4A18BF164654
:10388C0002F1D14208BF804602F5C0121A4802F577
:10389C001E620CBF864615461848194A0CBF844652
:1038AC0014461848A2F11162A2F50C22A2F28E2243
:1038BC0018BF02460020C3E90000C3E9028EC3E929
:1038CC0004C7C3E90665C3E90842BDE8F0816FF09F
:1038DC007300FAE7D89E05C13AF54FA567E6096A69
:1038EC007F520E518C68059BABD9831F07D57C3654
:1038FC0039590EF7310BC0FF85AE67BB72F36E3CC6
:10390C00A78FF964A44FFABE2DE9F04FD1B0031D77
:10391C00019300F124030DF58E7B0393019B5A4612
:10392C0053F8040F42F8040F03989842F8D14F9BB8
:10393C0002934CADDDE94AE395E82011DDE9480737
:10394C000493424B059306AA4FF00009B9F10F0FEF
:10395C0063D84C780B78240444EA0364CB78234373
:10396C008C7843EA04234FEAF52A8CEA0804059E76
:10397C0093608AEAB51A2C408AEA756A84EA0C04C8
:10398C00544456F804AB059654442344029CCDF899
:10399C0008C023444FEA703A40EA07048AEAB00AA6
:1039AC0004EA0E0400EA07068AEAB05A3443544487
:1039BC0009F10109DDF810A0CDF810E0B9F1400FC4
:1039CC009A4402F10402234401F104011ED1CDE911
:1039DC000634CDE94E8CCDE94CA5CDE94A7ECDE936
:1039EC004830019A52F8043F01925BF8042F1344BB
:1039FC00019A1360039B9342F3D106A84FF4947180
:103A0C00FFF79AFC002051B0BDE8F08FBE46C446CB
:103A1C000746A8461846554698E7136852F8384C9E
:103A2C0052F8346C4FEAF34A8AEA734A8AEA932AC8
:103A3C0052F8143C234452F8344C4FEAB44484EA10
:103A4C00F614534484EAD60423448CE734740000FF
:103A5C004FF0704393F8E02F062A09D1D3F8E83FD2
:103A6C00C3F30313033B042B02D8024AD05C704708
:103A7C0000207047417C0000024AD2F80034002B31
:103A8C00FBD0704700E0014010B503F0F4F940B1F1
:103A9C004FF080538E4AD3F82433C3F30423C2F877
:103AAC004035FFF7D5FF10B18A4B8B4A5A6703F0AC
:103ABC00E2F948B14FF080534FF08042D3F84432D2
:103ACC00C3F34233C2F83C35FFF7C2FF30B1834A2F
:103ADC00D2F8FC3023F08073C2F8FC3003F0CBF941
:103AEC0040B14FF080430022C3F80C21C3F81021E1
:103AFC00C3F83825FFF7ACFF20B14FF08043032209
:103B0C00C3F8A025FFF7A4FF60B1754B0522C3F8DD
:103B1C0010260122C3F888260022C3F818263F225B
:103B2C00C3F814264FF08053D3F83021511C09BF31
:103B3C004FF07043D3F8343193F8E02FD3F8E83FCB
:103B4C0008BFC3F30313062A4DD1033B042B03D840
:103B5C00644AD35C002B46D04FF08052624BD2F8B3
:103B6C000414C3F82015D2F80814C3F82415D2F89D
:103B7C000C14C3F82815D2F81014C3F82C15D2F86D
:103B8C001414C3F83015D2F81814C3F83415D2F83D
:103B9C001C14C3F84015D2F82014C3F84415D2F8FD
:103BAC002414C3F84815D2F82814C3F84C15D2F8CD
:103BBC002C14C3F85015D2F83014C3F85415D2F89D
:103BCC003414C3F86015D2F83814C3F86415D2F85D
:103BDC003C14C3F86815D2F84014C3F86C15D2F82D
:103BEC004424C3F8702503F046F948B14FF08053D4
:103BFC004FF08042D3F8583203F04F03C2F8E43E42
:103C0C0003F039F948B14FF08043D3F80024D207C0
:103C1C0044BF6FF00102C3F800244FF08053D3F877
:103C2C003021062A26D1D3F83431033B042B02D899
:103C3C002E4AD35C63B12E4AD2F83C3743F48063EE
:103C4C00C2F83C374FF08053D3F83031062B11D1EA
:103C5C004FF08053D3F83431033B042B02D8254A60
:103C6C00D35C3BB14FF01023D3F808224FF08043C4
:103C7C00C3F858254FF01023D3F80022002A03DB99
:103C8C00D3F80432002B22DA1B4901234FF0102009
:103C9C00C1F804351524FFF7EFFEC0F80042FFF71A
:103CAC00EBFEC0F80442FFF7E7FE0023C1F8043531
:103CBC00FFF7E2FEBFF34F8F0849104BCA6802F4BE
:103CCC00E0621343CB60BFF34F8F00BFFDE710BD25
:103CDC000030014000C007400DF0ADBA00ED00E02F
:103CEC00005000403C7C000000C00040377C0000CD
:103CFC0000100040327C000000E001400400FA0596
:103D0C0030B50468CCB1BFF35B8FB4FA84F3C3F164
:103D1C001F03DBB201229A4024EA020250E8005F42
:103D2C00A54204D140E8002CBCF1000FF6D1BFF342
:103D3C005B8FE6D102480B7030BD0248FCE700BF38
:103D4C000000AD0B0200AD0B10B50368CB40DB07D8
:103D5C0014D401238B400268BFF35B8F43EA02014A
:103D6C0050E8004F944204D140E8001CBCF1000F15
:103D7C00F6D1BFF35B8FEED1014810BD0148FCE7D3
:103D8C000000AD0B0400AD0B014BC3F804057047EC
:103D9C0000F00140F7B5044618B1012823D003B058
:103DAC00F0BD4FF080430222C3F80823C3F804018E
:103DBC00D3F804210122DA60064601238DF807307E
:103DCC0042F210754FF08047D4B1012CE7D1D7F8EF
:103DDC000C3403F48033AEBB83B3012003F05AF8E8
:103DEC00013DF4D12AE04FF080430022C3F80803D0
:103DFC00C3F80021D3F8002158600DF10706DCE769
:103E0C00D7F8183403F480333EB9002BC7D0012007
:103E1C0003F040F8013DF3D1C1E7D7F8182402F0C4
:103E2C0003023260002BBAD09DF80700012803D1A1
:103E3C0003F030F8013DC7D1012CB0D1054B002265
:103E4C005A71ACE7D7F80C2402F001023270002B47
:103E5C00EAD1F3E75C0E0020044B1A7922B9012257
:103E6C0018609A8002487047024870475C0E002028
:103E7C000000AD0B0C00AD0B38B510B1012843D0D0
:103E8C0038BD4FF08042D2F81814D2F81834C80359
:103E9C002ED503F00303012B04D013B10020FFF740
:103EAC0079FF00234FF08042C2F818350023C2F886
:103EBC000431D2F804310223C2F80433184AD2F880
:103ECC00FC0040F08073C2F8FC30164B1C6844F0C8
:103EDC00010119605D685968491BB1F50A5FFAD395
:103EEC001C604FF08043C2F8FC0001229A60C7E7C7
:103EFC00D2F81434D907D4D5D2F81C349B07CDD4BE
:103F0C000223C2F80433BBE74FF080430022C3F80E
:103F1C000021D3F80021C3F804031860B0E700BFF8
:103F2C0000ED00E0001000E010B54FF08043D3F836
:103F3C0000216AB10022C3F80021D3F8002101222C
:103F4C00C3F80823114B587910B95A711B6898475C
:103F5C004FF08043D3F8042172B10022C3F804213E
:103F6C00D3F80421D3F81824D3F81824920704D1D9
:103F7C000122C3F818259A6010BD0222C3F8082349
:103F8C00024BBDE810401B68012018475C0E002056
:103F9C00C0B2034B083033F81000C0F34010704728
:103FAC0040000020C0B2034B083033F81000C0F3BF
:103FBC004000704740000020C0B2034B083033F87B
:103FCC001000400B704700BF4000002070B500F19E
:103FDC0008030C4C34F81330DA0505460E4607D5A9
:103FEC00C3F3432304EBC30254F8333052689847AD
:103FFC00A3682BB1E26831462846BDE870401847EB
:10400C0070BD00BF4000002010B4C0B2114A08308F
:10401C0032F81030D9051BD5C3F3432123F4F853E0
:10402C0022F8103002F10E04002034F8023F13F491
:10403C00807F03D0C3F34323994209D00130202859
:10404C00F3D1002342F83130034810BCFFF77CBE9B
:10405C0010BC70474000002094000020F0B50146D1
:10406C00104A114C00200125064602F14043A3F5ED
:10407C00C2439B0805FA03F3194204D0176817B121
:10408C001660176818430432A242EED1074BD3F8DE
:10409C007C2132B10022C3F87C21D3F87C3140F072
:1040AC000040F0BD00610040206100400060004015
:1040BC00F0B5044685B017461D4601B3FFF772FFF5
:1040CC0018B12046FFF764FF08BB0023CDE900338D
:1040DC008DF80E308DF80F300DF10F020B46204687
:1040EC000DF10E0102F0FBFEE3B24449083331F846
:1040FC00132022F0020242F0010221F8132057B3E0
:10410C0020463E787A68FFF74DFF10B1C2B13C48AB
:10411C0023E0E3B2DFF8E4C008333CF8131021F0DD
:10412C002001C904C90C2CF813104AB1032EEED887
:10413C007A6817789EB9334B07F5A27743F8276056
:10414C00E3B22E49083331F8132022F01C0242EA64
:10415C00860221F813203DBB2B4805B0F0BDBA00F8
:10416C0002F1804202F5C04241EA4731D2F8100513
:10417C0020F00300C2F81005D2F8100520F44730E7
:10418C0020F44070C2F81005D2F810E5200200F4BB
:10419C00F85040EA0E0040EA064041F020012CF8AD
:1041AC001310C2F81005CBE7D5E900672046FFF7DE
:1041BC002BFF002ED0D0114DD5E90023964201D112
:1041CC009F4219D011480DF10F01FFF799FD0E4BCD
:1041DC009842C2D19DF80F2045F83260E4B205EB4D
:1041EC00C20308345F6035F8143043EA422343F4C9
:1041FC00807325F81430AFE70022EDE74000002073
:10420C000400AD0B006000400000AD0B94000020DA
:10421C00F0B5044685B0164629B3FFF7C3FE20B9A6
:10422C002046FFF7B5FE00285FD1E5B2304F0835C8
:10423C0037F8153013F01C0F02D04B78012B54D0EB
:10424C0001238DF80F300023CDE900134A1C8B1C81
:10425C0020460DF10F0102F042FE37F8153043F005
:10426C00030327F8153016B9224805B0F0BD2046D7
:10427C00FFF798FEC8B3E5B21D4F96F800C008359D
:10428C00614637F81500890020F0200001F18041CB
:10429C00C00401F5C041C00C27F815000023C1F87B
:1042AC0010357278002ADFD0D1F81035B67823F4A7
:1042BC00981323F4F853C1F8103512042302D1F8E3
:1042CC0010E502F4403203F4F8531343320543EA89
:1042DC000E0302F4801240EA4C30134340F02000ED
:1042EC0027F81500C1F81035BEE70348BDE700BF3D
:1042FC00400000200000AD0B0400AD0B014BC3E9E6
:10430C00020170474000002008B50246FFF740FE4E
:10431C0040B1D2B2044B0548083233F812305B0B73
:10432C000B7008BD0248FCE7400000200000AD0BFC
:10433C000400AD0B70B50F4C94F85860BEB90E4D1F
:10434C004022314604F1100000F041FFC5F87C61B9
:10435C000620D5F87C31FDF725FC4FF00043C5F85D
:10436C0004330648012384F85830636570BD044853
:10437C00FCE700BF40000020006000400000AD0BD7
:10438C000500AD0B034B93F85800003818BF012003
:10439C00704700BF4000002001460148FFF7D4BC25
:1043AC009000002001460148FFF7AABC90000020B5
:1043BC0037B50446FFF7ECFD08B32046FFF7F2FDD6
:1043CC000546E0B92046FFF7F7FD03B29B0003F169
:1043DC00804202F5C24203F1804303F5C0431560ED
:1043EC001268D3F8102542F00102C3F8102521B150
:1043FC00134A01238340C2F8043303B030BDE3B247
:10440C00104A083332F81330C3F38203042B12D052
:10441C00052B12D001A8019402F057FD019BD0F896
:10442C001015D94001F001010231204603B0BDE85E
:10443C00304002F09DBD0321F7E70221F5E700BFF4
:10444C00006000404000002008B50246FFF7A0FDC8
:10445C00C0B11046FFF7A6FDA0B91046FFF7ACFDA2
:10446C000B4A01238340C2F8083303B29B0003F1CB
:10447C00804303F5C043D3F8102522F00302C3F8A0
:10448C00102508BDBDE808400021104602F070BDA3
:10449C000060004073B5C5B2174E0835044636F8B7
:1044AC001530DB0726D5FFF7CFFF2046FFF770FD51
:1044BC0040B12046FFF780FD104B00F5A2700022A2
:1044CC0043F820202046FFF79FFD002301A826F883
:1044DC001530019402F0F9FC019B00EB8300084BB2
:1044EC00D0F80027134043F00203C0F8003705480A
:1044FC0002B070BD0448FBE74000002000600040A3
:10450C00F0F8FCFF0000AD0B0400AD0B2DE9F347F8
:10451C00534BD3F80403C0B240F00040FFF79EFDAC
:10452C00051E1ADA4FF0A043DFF83881D3F82025A6
:10453C000092C3F820250127009CA4B94FF000403D
:10454C00FFF78CFD4FF0A042D2F820350093C2F853
:10455C002035002BEFD125F000450124002D66D12C
:10456C0002B0BDE8F08794FAA4F4B4FA84F4E0083D
:10457C0004F1080304F0070238F813901DF800301A
:10458C00019407FA02F223EA02030DF8003001A8A5
:10459C0002F09BFC019B03F5E0734FEA990150F884
:1045AC002360C9F3820A4B07D146C6F3014623D5D3
:1045BC0020465146FFF70AFD01A8019402F085FC44
:1045CC00019B03F5E073F6B250F82330C3F30143BB
:1045DC009E4207D10021204602F0CAFC31462046FB
:1045EC0002F0C6FC01A8019402F06FFC019B07FAD3
:1045FC0003F3C0F820359FE7022E0CD1032120468F
:10460C0002F0B6FC0AF00503012BEBD1494620461B
:10461C00FFF7DCFCE6E70221204602F0A9FCBAF128
:10462C00030FF3D0032EDDD1BAF1020FEDE795FAAB
:10463C00A5F3B3FA83F304FA03F29B0003F180436E
:10464C0003F5C04325EA0205D3F81005D3F810157D
:10465C00C0F30420C1F30141FFF7B8FC7EE700BFB3
:10466C000060004040000020044AD2F80034DB0710
:10467C00FBD50160BFF35F8F704700BF00E00140C6
:10468C004FF080531A69B0FBF2F302FB130373B9BA
:10469C00084B0222C3F80425C3F80805D3F80024FC
:1046AC00D207FBD500220448C3F804257047034801
:1046BC00704700BF00E001400000AD0B0A00AD0BDD
:1046CC0010B5054C0123C4F80435FFF7CDFF0023CA
:1046DC00C4F8043510BD00BF00E00140014601489C
:1046EC00FFF70EBB9C00002010B5144CA822002133
:1046FC00204600F06CFD03232361114A6361114BCA
:10470C00A261E3614FF4806323620023A3626362BE
:10471C00E36222660C4A62661022A2662367E36695
:10472C006367BFF35F8F094A12F8011DE15401332F
:10473C00102BF9D1BFF35F8F10BD00BF640E0020AA
:10474C006F7C00002428002014280020887C0000A6
:10475C00104B70B553F82040013053F82060A6423E
:10476C0000D870BDD4E9003595B153B128469847AF
:10477C0038B10028B8BF4042EB68FF28A8BFFF2023
:10478C001870EA68537843F0010353700834E6E775
:10479C009847FBE73475000008B5094B012203204C
:1047AC001A70FFF7D5FF00F01FF90420FFF7D0FFB8
:1047BC00FBF7F8FD034A137B23F00103137308BDC9
:1047CC00242C0020D000002008B50348034A002107
:1047DC00121A02F011FC08BDB0000020282C002099
:1047EC0008B50020FFF7B4FF184B83F30888184C6A
:1047FC00636943F4007363610025E02384F822307D
:10480C00E57725766576A57684F82050636A43F4BF
:10481C00E023636284F82350FDF7BEFBFDF7B0F98B
:10482C004FF0FF33A362E362FDF7C4FCFDF752FCCB
:10483C0002F0C6FB0120FFF78BFF0220FFF788FF79
:10484C0004482B462A462946FDF73AFA80340020C4
:10485C0000ED00E0A547000008B50648064A0749E8
:10486C00121A02F0CBFBBDE80840054A0549064880
:10487C0002F0C4BB00000020B0000020B47C00009B
:10488C0000000000B47C000000000020034B1B68FB
:10489C000BB9FEF723BC0020704700BF0C0F0020A3
:1048AC0010B50E4B1C689C4204D1FFF7EFFF6FF064
:1048BC00004010BDFFF7EAFF002CF8D0D4E9043219
:1048CC001B1A62EBE072B3F1004F72F10001EEDAE9
:1048DC00002AACBF18460020EBE700BFA000002068
:1048EC0030B570B10B4B5B6898420AD0036843B18A
:1048FC00D3E90421D0E90445121941EB0501C3E9C0
:10490C000421D0E9003213605A600023C0E900335F
:10491C0030BD00BFA00000202DE9F84F4FF0200360
:10492C00EFF3118C83F31288BFF36F8FDFF8ACA019
:10493C00DFF8AC902B4FC9F80000DAF80000002427
:10494C00504508BF00200025D7E90021D9F80030D8
:10495C00E04680B3D0E9046C4FEAE37EB3427EEBD1
:10496C000C0B05DAF61A6CEB0E04C0E9046422E0B9
:10497C00B21841EBE671C0E90445C7E90021FFF725
:10498C00AFFF88F31188BFF36F8F836898474FF0A0
:10499C002003EFF3118883F31288BFF36F8FD9F8DC
:1049AC000030DAF800009B1B5045C446C9F80030B3
:1049BC00CAD1D7E900219A1841EBE3730024C7E967
:1049CC000023C9F80040FFF76BFF2146FEF752FBAE
:1049DC0088F31188BFF36F8FBDE8F88FA00000201B
:1049EC000C0F002050010020014800F05ABA00BF03
:1049FC008C7C000070470020704730B583688B4278
:104A0C0085B0044615460ED96368C068194401AADE
:104A1C0000F0F1FC28B96268019B9B1A2B60029B89
:104A2C006B6005B030BD6FF02100FAE72DE9F7435C
:104A3C000E4617469946044628B94FF0FF384046B3
:104A4C0003B0BDE8F0830029F7D0002AF5D0CB687D
:104A5C000D891D4404230DEB03022946384600F052
:104A6C0015FB80460028E8D1BDF80410738946F682
:104A7C000812914225D1BDF806109942DDD10423CC
:104A8C000DEB03022944384600F000FB0028D4D17A
:104A9C00BDF8042046F607139A42CED1C4E900674C
:104AAC009DF82830A4F80890A3727389BDF80620ED
:104ABC002B44E360738913442B44043563612561F3
:104ACC00BDE7002BE4D0B8E72DE9F3410E461746BD
:104ADC001D46044620B94FF0FF3002B0BDE8F0810E
:104AEC000368002BF7D04368002BF4D04FF6FF7807
:104AFC00D4E904239A4216D223685B8923B1E36874
:104B0C00934204BF043323610423216960680DEBD5
:104B1C00030200F0BBFA0028DDD1A37A2BB1D4E953
:104B2C0003329A4201D30120D7E72389BDF806103E
:104B3C00434501F1040203D0BDF804C09C450BD1E0
:104B4C0015B1BDF804302B802369043333603980F0
:104B5C00236913442361C0E7236913442361C7E726
:104B6C0000F01ABB4FF4C07358433030704710B587
:104B7C00044600F0C9FAA3684FF4C072303B02FB44
:104B8C00103010BD70B50D46044600F08BFD2A4662
:104B9C00A0F1080104232046BDE8704000F076BA6D
:104BAC0013B50446019100F07DFD0423A0F108012A
:104BBC000DEB0302204600F0B8FD02B010BD70B53D
:104BCC0013460E461546002102460446FCF736F9FC
:104BDC0050B92B4604F12C0201212046FCF72EF98A
:104BEC0010B1002E08BF002070BD73B50446002024
:104BFC000D461646FBF756FC6946C0B2FCF768FF3B
:104C0C0030BB2C2303FB05440098E36825891D4425
:104C1C0004230DEB0302294600F038FAC0B9BDF8A5
:104C2C0004206489009846F608139A4215D1BDF801
:104C3C0006309C420CD104230DEB0302611900F0E9
:104C4C0025FA28B9BDF8042046F607139A4207D076
:104C5C00009800F01AFA02B070BD002CF2D0F7E701
:104C6C00BDF80610214429443160F1E737B50446FC
:104C7C00426A802501A902200195FCF751FF58B921
:104C8C00019B226DA36201A905200195FCF748FF49
:104C9C00054628B1092500E00125284603B030BDA2
:104CAC00019B206A636500F02FFAE065F5E70123AC
:104CBC00036003F1012343600023C0E90233704712
:104CCC004379012B07D10368012B04D10079431ED2
:104CDC00584258417047002070477FB506460D4634
:104CEC00022001A9FCF7F4FE38BB0198FFF73FFF47
:104CFC00F16D0446284600F0BFF80444019800F01A
:104D0C0003FA0646019800F006FA082201460DEB5C
:104D1C00020000F05CFA2B798DF8083021460198DE
:104D2C00334602AA00F0C7F9041E019818BF0124EB
:104D3C0000F0ABF9204604B070BD0124FAE700F096
:104D4C00CFB92DE9F8430E46002107460846FBF77C
:104D5C00A9FB012104460020FBF7A4FB33789C42FD
:104D6C0021D0984221D101252C2303FB0575F86D28
:104D7C00AC6AFFF7F7FE013C07464FF000086B6A80
:104D8C0003EBC40253F83410D2F804901B684A4663
:104D9C00C91A3046C844FFF7D2FFB84504F1FF34B6
:104DAC00EDD3BDE8F8830025DEE70120F9E737B540
:104DBC0015460C460520694600F0FAFCE9790129F4
:104DCC0003D00022204600F007FD9DF80330012B94
:104DDC0002D1204600F0DFFCA9682046FFF7E0FE78
:104DEC002046FEF79DF9002003B030BD73B50D468B
:104DFC000646FCF723F90446E86050B302282DD18F
:104E0C0001A9FCF765FE58BB01982A463146FCF710
:104E1C007BF80446D0B9019800F044FC012301460C
:104E2C000DF10302019800F031F90446A0B9019884
:104E3C0001220DF1030100F049FC10B101238DF8A2
:104E4C0003309DF8033003F00F03EB71019800F071
:104E5C001CF9204602B070BD0124F7E70724F8E7DF
:104E6C000124F6E7436A00205A68034613448B4238
:104E7C0000F10100FAD3704710B543790279012B88
:104E8C0014BFCB01002302F1FF3201FB0233026895
:104E9C0014BF4C000C46013A04FB023010BD00203C
:104EAC0070470FB407B504A951F8040B0191FCF736
:104EBC00CFFA03B05DF804EB04B07047038B13F02A
:104ECC00070305D10368002B0CBF0020032070479B
:104EDC00022B05D1408BB0FA80F04009800070475E
:104EEC00012B05D10368002B0CBF00200520704757
:104EFC000020704710B50C4600B111B96FF01500C9
:104F0C0010BD081D00F095F80028F9D1A368032BFB
:104F1C00F6D9F3E72DE9F0410D4607461946281D51
:104F2C0090461E4600F096F8044638B13346424689
:104F3C0029463846A446BDE8F0416047BDE8F081FB
:104F4C0010B44FF02004EFF3118284F31288BFF3F6
:104F5C006F8F416110BC0121FCF788BA38B50C4643
:104F6C00054658B151B10B6843B14B6833B11C22A3
:104F7C00002100F02CF92C61002038BD6FF01500D9
:104F8C00FBE770B505460E46FFF7B4FF041E15DBB4
:104F9C004FF02003EFF3118283F31288BFF36F8F6E
:104FAC006B8B2C8B4FF6FF718B4204F0070407D1EF
:104FBC0082F31188BFF36F8F6FF00A04204670BD27
:104FCC00022C0CD101336B8382F31188BFF36F8FEA
:104FDC000023224631462846FFF79CFFEEE7062CBD
:104FEC0014D8DFE804F004131313041A040000238C
:104FFC0033606B683BB9C5E90066ACB90221284641
:10500C00FCF734FADAE71E606E60F6E782F311887B
:10501C00BFF36F8F6FF00404D0E782F31188BFF3F6
:10502C006F8F6FF08504C9E782F31188BFF36F8F20
:10503C00C4E7034658B1426802F00302012A03D0C8
:10504C00032A04D1026812B10020986070476FF0F7
:10505C00150070474268816002F00302032A4FF08A
:10506C00000203460CBF006810465A607047704738
:10507C000FB407B504A951F8040B0191FCF7E8F93A
:10508C0003B05DF804EB04B070477047002930B4EE
:10509C00044618460BDBA5680844A84207D8E0680C
:1050AC006468214484682468A44630BC60476FF06F
:1050BC00150030BC7047002930B4044618460BDB91
:1050CC00A5680844A84207D8E0686468214484684D
:1050DC006468A44630BC60476FF0150030BC704764
:1050EC000029034610B410460ADB9C680844A04211
:1050FC0006D8D8685B681944836810BC9B6818474D
:10510C006FF0150010BC704708B5C0688368DB6889
:10511C009847006808BD08B5C0688368DB68984785
:10512C00007908BD70B54C680368A34201D2012018
:10513C0070BD8A682244934201D30020F8E7D1E97C
:10514C0003254E69B54203D36FF00B038B61F4E773
:10515C001B1B42F835304368086902EBC0025360F0
:10516C000B6901330B61E2E701F036BF01460068C1
:10517C0001F032BF00210120FFF7F6BF08B5FCF7A4
:10518C0059FDBDE80840FCF7C7BD034600201A5C7A
:10519C0002B970470130FAE710B55AB101398418D9
:1051AC0010F8012B11F8013FA04201D09A42F7D020
:1051BC00D01A10BD1046FCE710B5431E0A449142AC
:1051CC0000D110BD11F8014B03F8014FF7E7C9B23C
:1051DC0002440346934200D1704703F8011BF9E7E0
:1051EC004FF0FF3070470369C9B20C2201FB023348
:1051FC00186C00F0070070474FF02003EFF311829A
:10520C0083F31288BFF36F8F036803F0C00343F07E
:10521C000203036082F31188BFF36F8F704770B580
:10522C00C9B203694FF02004EFF3118584F312889F
:10523C00BFF36F8F0C2606FB0134246C14F0C004F2
:10524C0008D0A24206D085F31188BFF36F8F4FF0C0
:10525C00FF3070BD71430B4401221A6485F3118831
:10526C00BFF36F8F43680B445B6898470020F0E7EF
:10527C008022FFF7D4BFF8B5069F0469C9B24FF07E
:10528C002005EFF3118685F31288BFF36F8F0C2581
:10529C0069430C44256C05F0070CBCF1010F0BD1D4
:1052AC00276486F31188BFF36F8FC4E90E2343681C
:1052BC005B5898470020F8BD05F0C005AF4286F357
:1052CC001188BFF36F8F0CBF6FF077004FF0FF307A
:1052DC00F1E713B580240094FFF7CDFF02B010BDA9
:1052EC006FF08500704710B40069CBB21C2403FB2F
:1052FC000400002110BC1047002001F0E4BD38B5BB
:10530C0005460C4601F043FE002D07DBA84205D9EB
:10531C00401B84428CBF0020012038BD0020FCE7DC
:10532C0070B50C46154601F038FE29460646204657
:10533C00FFF7E5FFB8B1B4FBF6F306FB134393B9E3
:10534C00B5FBF6F306FB13536BB9AE4201D9002043
:10535C0070BD01F022FE06462046FFF791F9AD1B09
:10536C003444F9D1F3E76FF01500F1E770B50D4651
:10537C002846194616461C46FFF7C1FF38B124B122
:10538C00224629463046FFF717FF002070BD6FF00C
:10539C001500FBE7F7B51C46164600238268236010
:1053AC00A36013690D4601AA69469847019B5A1ED2
:1053BC0001921BB96FF0150003B0F0BD0098A26804
:1053CC0047682168676085B9B31AD0F800C0634597
:1053DC0028BF63461A4403FB07112160A2600268D0
:1053EC009A4206D808300090E0E76B1AB3FBF7F34B
:1053FC00EBE70020E0E713460022FFF7CBBF2DE9D7
:10540C00F047836886B01B698846914601A902AAB9
:10541C0098470024A2462546029BAB4202D806B010
:10542C00BDE8F087019F07EBC50700267B68049356
:10543C003A68B2420AEB060302D801359A46EBE70A
:10544C0003940593494603A8C0470028E7D0049B62
:10545C0001361C44ECE743685B68D3F810350B60ED
:10546C000020704743685B6802EA010021EA0201F0
:10547C00C3F80805C3F80C150020704743685B6837
:10548C000020C3F80815704743685B680020C3F818
:10549C000C15704743685A68D2F8043521EA0300AA
:1054AC000B40C2F80805C2F80C350020704710B547
:1054BC0003695868F8B1884219D19C68086858602B
:1054CC00A14200D19860002008602AB15A680A6095
:1054DC009A68596002B99960002010E0814206D1A7
:1054EC000868206098688142EDD19C60EBE7044627
:1054FC0000680028F2D1002AE8D16FF0150010BD29
:10550C0030B543681360057A446804EBC504A342C4
:10551C0002D36FF0010030BD5C798C4201D00833AE
:10552C00F0E70020F7E702690B46D2E9010183E8B6
:10553C0003000020704743681B68D3F88004C3F84D
:10554C0080047047436802691B68D3F8100150B19E
:10555C005269002012780A70C3F81001D3F8102198
:10556C0001221A6070474FF0FF3070470268034603
:10557C00D2F8580140B95B689B0706D4D2F82001D9
:10558C00003818BF0120704701207047426813682B
:10559C00D3F80413C90518D5D3F82011A9B14FF0CD
:1055AC002000EFF3118180F31288BFF36F8FD3F8D3
:1055BC00200130B10020C3F82001D3F820010120D4
:1055CC00D86081F31188BFF36F8F5268D20615D55E
:1055DC004FF02001EFF3118281F31288BFF36F8F2C
:1055EC00D3F8581111B10021C3F800154FF4800104
:1055FC00C3F8081382F31188BFF36F8F704700F163
:10560C0050039B009BB203F1804303F588330022C7
:10561C001A601B6870472DE9F0434FF08043044635
:10562C00884685B0012744EA080400EB0109C3F859
:10563C000876050B102200216846C4F30B04FFF713
:10564C00C6FD4FEA193624B9B9F5012F01D2B5427E
:10565C0010D96FF015001EE06A0904AB03EB82024F
:10566C0005F01F0352F8101C07FA03F30B4342F822
:10567C00103C0135B542EFD14FF08043009AC3F88E
:10568C000026019AC3F80426029AC3F81026039A3E
:10569C00C3F81426002005B0BDE8F08308B500203F
:1056AC00FCF7C2FC8068183820F0070010387047EF
:1056BC00042809D0052803D1481E18BF01207047C3
:1056CC00431A5842584170470120704738B5154667
:1056DC000C4661B15AB1FFF71EFD2544214611F865
:1056EC00013B834203D1A942F9D1012038BD0020EE
:1056FC00FCE738B50C460123114622460546FFF758
:10570C00C5FC00280FDB012221462846FFF7DEFFEF
:10571C0038B92378012B14BF0223012323700020F6
:10572C0038BD0323FAE70120FAE72DE9F7431D46BC
:10573C0006460F469046FFF7E7FC6C1E04444042B9
:10574C000440082C1AD83046FFF7E5FC2A4681465F
:10575C0041466846FFF730FD621B49460DEB0500DC
:10576C00FFF735FD23466A4639463046FFF7A3FC62
:10577C00003818BF012003B0BDE8F0834FF0FF30B4
:10578C00F9E707B501238DF8042001AAFFF7CDFF37
:10579C0003B05DF804FB81681839012221F0070180
:1057AC00FFF7EFBF8268183A22F00702FFF7A1BF9C
:1057BC0013B50C46C0B201A9FCF78AF950B92146C1
:1057CC000198FDF7CDFC04460198FFF75EFC2046DE
:1057DC0002B010BD0124FAE713B541EA02110446E8
:1057EC008DF80710FFF75EFF012301460DF107024C
:1057FC002046FFF79AFF02B010BD8168183921F0DE
:10580C00070101220839FFF7BCBF70B50368CD1A38
:10581C00002D02DC6FF05F0070BD93F900601C7806
:10582C00002E0ADB5C1C04601B7813600368C91A29
:10583C0013688B42EED80020EEE704F07F04013CA5
:10584C00032C2BD8DFE804F0020A1421012DE1D03F
:10585C005B781360036802330360E7E7022DD9DD40
:10586C00B3F801305BBA9BB2136003680333F3E700
:10587C00032DCFDD9C785D78DB78240244EA054467
:10588C002343136003680433E6E7042DC2DDD3F829
:10589C0001301BBA136003680533DDE76FF063005A
:1058AC00BAE770B404680E1B002E07DD26789E4202
:1058BC0008D10134046070BCFFF7A7BF6FF05F0024
:1058CC0070BC70476FF06100FAE773B502231546A0
:1058DC0001AA0446FFF7E5FF40B9019E2168324654
:1058EC00284600F0EEF823683344236002B070BD04
:1058FC002DE9F84306460F461546984600244FF00E
:10590C000C094146204601F01BF909FB0471C2B297
:10591C00304601F02DF910B90134A542F1D1BDE8A2
:10592C00F8831FB5069CCDE9023453680193936844
:10593C000093D1E90132014601F0A4F804B010BD86
:10594C0000230122C0E900238360704710B5044690
:10595C0068B1806830B161688900FDF7EDFCA06822
:10596C00FDF7DAFC00230122C4E90023A36010BD7B
:10597C0042F21073994270B504460D4602D96FF08D
:10598C000F0070BD43688B4201D30020F9E704215E
:10599C002846FDF7BBFC06460028F0D0A16859B19B
:1059AC0062689200FFF708FC6168A0688900FDF747
:1059BC00C3FCA068FDF7B0FCC4E90156E5E738B5B7
:1059CC0004460D4619B9FFF7C1FF002038BD4268E7
:1059DC008A4207D1806892000021FFF7F8FB01236F
:1059EC002360F2E7FFF7B2FF29462046BDE83840B6
:1059FC00FFF7BEBF884270B505460E4609D0496810
:105A0C00426841B92AB10123036092008068FFF714
:105A1C00DEFB002070BD4C1E84B9013433682B6052
:105A2C00944212D921462846FFF7A2FF0028F1D153
:105A3C00B168A868A200FFF7BFFBEAE7B36853F8A8
:105A4C002430002BE9D1013CE6E7A868121B920038
:105A5C00002100EB8400FFF7BAFBE9E770B50C46B8
:105A6C0001210546FFF784FF064670B96A680146B6
:105A7C009200A868FFF7ABFB002CA968BABF644280
:105A8C004FF0FF3201220C602A60304670BD436833
:105A9C00B1EB431F3FBF83684A0901F01F0153F864
:105AAC0022003ABFC84000F0010000207047D0E946
:105ABC00011000F00CBE08B5FFF7F9FF0730C00865
:105ACC0008BD70B50E4612F0030118BF012101EBA1
