:020000040000FA
:1000000080440020A5220000955B000079220000BA
:10001000792200007922000079220000000000000F
:10002000000000000000000000000000451F00006C
:1000300079220000000000007922000079220000EF
:10004000C11F0000C11F0000C11F0000C11F000030
:10005000C11F0000C11F0000C11F0000C11F000020
:10006000C11F0000C11F0000C11F0000C11F000010
:10007000C11F0000C11F0000C11F0000C11F000000
:10008000C11F0000C11F0000C11F0000C11F0000F0
:10009000C11F0000C11F0000C11F0000C11F0000E0
:1000A000C11F0000C11F0000C11F0000C11F0000D0
:1000B000C11F0000C11F0000C11F0000C11F0000C0
:1000C000C11F0000C11F0000C11F0000C11F0000B0
:1000D000C11F0000C11F0000C11F000053B94AB971
:1000E000002908BF00281CBF4FF0FF314FF0FF3040
:1000F00000F00CB8ADF1080C6DE904CE00F008F882
:10010000DDF804E0DDE9022304B07047704700BF6A
:100110002DE9F04786468C460846089E15467446EB
:100120001946002B40F0C2808542B2FA82F245D9CE
:100130004AB1C2F1200300FA02FC2EFA03F3954003
:1001400043EA0C0C94404FEA154EA8B2BCFBFEF8F3
:10015000230C0EFB18CC08FB00F943EA0C4399452D
:1001600028D9EB1808F1FF3704D2994502D9A8F134
:1001700002072B44A3EB0903A4B2B3FBFEFC0EFB66
:100180001C330CFB00F044EA0344A04214D92C19A0
:100190000CF1FF3304D2A04202D9ACF102032C448B
:1001A000241A43EA07401EB1D44000233460736030
:1001B000BDE8F0874746DDE76346F1E792BB431BA6
:1001C00001214FEA154EAFB2B3FBFEFC200C0EFB33
:1001D0001C330CFB07F840EA0343984562D9EB183F
:1001E0000CF1FF3004D2984502D9ACF102002B4447
:1001F000A3EB0803A4B2B3FBFEFC0EFB1C330CFB09
:1002000007F744EA0344A7424ED92C190CF1FF33F7
:1002100004D2A74202D9ACF102032C44E41B43EA06
:100220000040C0E7C2F1200320FA03F1954090405E
:100230002EFA03F303434FEA154EAFB2B1FBFEFCB7
:100240000EFB1C10190C0CFB07F841EA0041884515
:1002500004FA02F422D969180CF1FF3004D288455F
:1002600002D9ACF102002944A1EB08019BB2B1FB19
:10027000FEFC0EFB1C110CFB07F743EA01439F42F7
:100280000ED9EB180CF1FF3104D29F4202D9ACF128
:1002900002012B44DB1B41EA004192E76046E3E7A1
:1002A0006146F7E76046A3E76346B7E7834206D9AE
:1002B00016B9002108467BE7C6E900E0F9E7B3FA82
:1002C00083F78FB9834201D3724508D8BEEB02048D
:1002D00060EB030301209C461EB9002168E7384605
:1002E000FAE7C6E9004CF8E7C7F1200CBB4022FA58
:1002F0000CF41C432EFA0CF120FA0CF3B840014325
:100300004FEA14490EFA07F5B3FBF9F81FFA84FE19
:1003100009FB18300B0C08FB0EFA43EA00439A4520
:1003200002FA07F240D9E31808F1FF3004D29A45E7
:1003300002D9A8F102002344A3EB0A0389B2B3FB5C
:10034000F9F809FB183308FB0EFE41EA03418E451C
:100350002CD9611808F1FF3304D28E4502D9A8F1D7
:100360000203214443EA0040A0FB0298A1EB0E01E6
:100370004145CE46434602D306D14D4504D2B9EBA2
:10038000020E68EB04030138002EA6D0B5EB0E0276
:1003900061EB030101FA0CFC22FA07F34CEA0303B8
:1003A000F940C6E9003198E74046C5E74346D9E73A
:1003B000F0B52E4B2E4AC3F800262E48C3F804266B
:1003C00085B0C3F808264921C3F80C26C3F81026C7
:1003D000C3F81426C3F81826C3F81C2605F054FBEE
:1003E00004F0E9F801A800F065FC234B1B68834288
:1003F00004D02248452105F047FBFEE7039A204838
:10040000492105F041FB1F48492105F03DFB4FF410
:100410004041002005F00BFE044620B11A4845215A
:1004200005F032FBFEE769469DF8080000F030F861
:10043000009B039D1D44019B1E8902F0C1FFAF1963
:1004400001F038F901F00CF901F068FFAB5983F3C2
:10045000088884F31488BFF36F8FBFF36F8F7B68B6
:1004600098470A48452105F00FFBFEE700000140D0
:100470003546526E9469000050010020AD690000BD
:10048000D0690000FF690000246A0000576A00007C
:1004900008B5024638B105480023452105F0F4FAB5
:1004A0006FF0150008BD0860FCE700BF7A6A000025
:1004B00021B1012906D06FF015007047044B53F8A5
:1004C00030007047024B03EBC0035868704700BF11
:1004D000086600002DE9F04FD9B0DDE96489DFF846
:1004E000A8B1669FDBF8005038A816461C4601F0FC
:1004F0008BF8B8F1000F07D0B9F1000F04DD4A46C0
:10050000414638A805F051F933897289D6F80CA014
:1005100013449A444FF00008C24544D838A90CA8A7
:1005200005F069F927B120220CA9384605F050FBE7
:100530000023009322464FF6FF73314606A804F0CD
:100540003BF8804660BB20460B9E00F063F9864274
:1005500026D8DFF838914FF0FF370DF1120304AAC7
:1005600005A906A804F076F8002819DB40F085807C
:10057000BDF81230102B2ED1BDF81060202E0FD1F7
:100580000599334638AA204605F08CFA40B9324620
:1005900038A90CA804F0D6F83D4B1B68834217D04D
:1005A000DBF800506CE0639B629AAAEB080999455E
:1005B00028BF99464B464146204605F073FA00286D
:1005C000EED162994A4638A805F0EFF8C844A3E78F
:1005D0004FF00108C1E7012B31D1BDF81030202BBD
:1005E000DED8059938AA204605F05CFA07460028AF
:1005F000D6D19DF810A0BAF1200F02D94FF0FF37E5
:10060000ABE7D9F80030234E0393039B9F42F5DA02
:100610001CA800F0F9FF726856F8081B12681CA8A5
:1006200005F0C3F81CA914A805F0E5F8524638A94E
:1006300014A805F0BDFA00288FD00137E5E7222B7A
:100640008BD17B1C89D0D9F80030BB42D6DDBDF8F8
:100650001030802BA4D8059938AA204605F022FA3C
:1006600000289DD1FFB2BDF81030009738AA202194
:100670000CA800F011F80546C0E7B8F1000F8FD0C4
:10068000284659B0BDE8F08F040000201066000035
:1006900050010020146600002DE9F04798B016467E
:1006A0001D469DF88020394BDFF8E48053F8321066
:1006B000039103EBC20307465B68D8F80090186803
:1006C00004AA0144302303A804F027FA002849D1E2
:1006D000DDE903431C4405AA08AB214603A804F046
:1006E00044FA00283ED1069A072A3BD129490798A7
:1006F00005F05EFA002835D1099A082A32D1264938
:100700000A9805F055FA68BB04AA214603A804F02C
:1007100018FA38BBDDE903A30AEB0302944221D1A6
:10072000412B1FD13544302305AA294604A804963D
:1007300004F0F3F9A0B9DDE9043213449D420FD36C
:100740002A4604A908A803F0D1FF48B92A4604A9FB
:1007500010A803F0CBFF18B99AF80030042B05D08D
:10076000D8F80090484618B0BDE8F08700F060FE69
:1007700008AB0090202239460AF1010004F0B2FED5
:100780000128EDD1054BD3F80090EBE7146600008B
:1007900004000020A96A0000A06A000050010020A7
:1007A000094A0B78400052F820108B4209D00130E2
:1007B00052F82000834214BF4FF0FF304FF4C07056
:1007C00070474FF4C07070471C6600001FB50F4B98
:1007D00013F830000C4601F0E3FA50B92068816844
:1007E00010236A46103905F05DF928B1206805F03C
:1007F00058F94FF0FF3006E005491022684605F031
:10080000D7F90028F2D104B010BD00BF1C6600006B
:100810008469000013B5044603F09BFF6A46014655
:10082000204603F0AFFE30B10448452105F02CF915
:10083000002002B010BD0098FBE700BFB16A0000C5
:100840002DE9F041364B88B0064600200D461C6865
:10085000FFF72EFE06A9C0B201F0A2FA002858D177
:100860002946FFF725FE2C2407A9C0B204FB056426
:1008700001F096FA002833D02C276F4306EB0708C7
:10088000069BD8F8101011F0100138D14FF4807287
:100890000192244A0092CDE90311224602910846B2
:1008A000FFF718FE0446204BF25906989A420CD1E5
:1008B000D8F80C20B8F808309B1806D2826893420A
:1008C00003D21A4B1B68A34220D035B382680021A3
:1008D00005F012F9164A1748452105F0D5F813E03E
:1008E000079805F024F90746079805F0DAF8631E23
:1008F000E21C13F8011FB942BED19342F9D11DB1D8
:100900000699304604F00FF80B4B1C68069805F06A
:10091000C8F8204608B0BDE8F081084ADBE700BF10
:1009200004000020F40E00203DB8F3965001002092
:10093000F46A0000FE6A000000000020EC6A00007B
:100940007FB50D46044600212846CDE9021103F08B
:10095000A9FF28B32368194EB34203D103AA204646
:1009600003F035FFE36AB34204D102AA0121204615
:1009700003F02DFFDDE90232934288BF0393039B0E
:10098000AB60039A2946204600F08EFB0C4B1A6898
:10099000002A03DD0B48572105F076F804B070BD3E
:1009A00001A9FFF713FF019805F1080103F0DCFE30
:1009B000AB680198039305F074F8E2E73DB8F3964D
:1009C000B40D0020266B00002DE9F84FDFF870B061
:1009D0001C4C1D4D884691469A4600260B9B9E4214
:1009E00001D300200FE00B9B154A9F1BB7F5806FCA
:1009F00028BF4FF480673B4606EB0A01404605F0EE
:100A000051F810B10120BDE8F88F0A993B465A46CB
:100A10007118484605F05BF80028F3D1C4F8005679
:100A20003E44C4F80456C4F80856C4F80C56C4F83A
:100A30001056C4F81456C4F81856C4F81C56CDE71E
:100A400054090020000001403546526EF0B5904B2D
:100A500043620E468F4B0365002187B0044608466B
:100A6000FFF726FD04F12001C0B201F099F9012140
:100A70000020FFF71DFD04F14C01C0B201F090F918
:100A8000204603F0E5FE054668B9002211462046DF
:100A900003F087FE054600B37F480022572104F08B
:100AA000F3FF012390E07D488022572104F0ECFF02
:100AB00001239D4284F85830E7D194F858308DF8DE
:100AC0000F30042B00F28380012B00F2878000F0AE
:100AD0009A80FF2384F8583095E0204600F0FCF916
:100AE0000028DED002A803F0D4FE0146204603F021
:100AF0006FFF18B16A482A465721D0E702A803F0D1
:100B0000D1FE80F0010102AAC9B2204603F049FEDD
:100B100002460028C0D102A803F0C4FE054660BB0F
:100B200002A92046FFF70CFF9DF80F3084F85830DB
:100B3000033B012B06D8284600F0E2F810B1FF2352
:100B400084F858309DF80F30023B022B0BD8002060
:100B500000F0C0F838B1FF2384F8583051484521DF
:100B600004F092FFFEE794F85830FF2BF6D002AA6B
:100B70000021204603F015FE93E79DF80F70012F2A
:100B800017D1104602F0AAFC831E022B05460DD891
:100B900039462046FFF754FE434B1B68984205D068
:100BA000424B1D68A84214BF0525012584F8585002
:100BB00083E701212046FFF743FE3B4B1B68984229
:100BC0000CBF9DF80F30052384F8583075E7052BCE
:100BD0007FF47FAF002000F093F811E002A92046D7
:100BE000FFF7AEFE94F85830DA1E012A14D8002020
:100BF00000F086F800287FF46CAF002000F06AF85F
:100C000000287FF466AF94F85830FF2B07D12548B1
:100C1000452104F039FFFEE7022BF4D1EDE7002176
:100C2000012B234D019113D002AA204603F0B9FDF8
:100C300070B12D681022002102A804F0D4FFE06CEE
:100C400004F02FFF206A04F02CFF284607B0F0BD07
:100C500000212046FFF7F4FD134F3B689842E8D18E
:100C60002B689842E5D0114B1B689842E1D0019B5C
:100C700001330193019B012B00D0FEE7206A03F0B2
:100C80007FFC3071236A5B6834603D68B360D1E7F4
:100C90005405002054010020976B0000556B0000A4
:100CA000C36B0000ED6B000050010020000000202D
:100CB0000400002038B5064D044660220021284675
:100CC00004F091FF21462846FFF7C0FE38BD00BF63
:100CD000540D002013B5094B01A913F8300001F0A1
:100CE0005FF848B9019805F094FA0446019804F0B9
:100CF000D8FE204602B010BD0124FAE724660000A9
:100D00001FB50F4B01A913F8300001F049F8A8B93D
:100D1000019802A902F08CFB044668B99DF80B30DB
:100D2000032B03D1019805F042FA0446019804F020
:100D3000B8FE204604B010BD0124F7E70124F8E70F
:100D4000246600002DE9F34106460C4617461D4671
:100D50000BB9002628E0184603F0A4FD0028F8D1BE
:100D60006946FFF733FD009838B90124009804F074
:100D700098FE204602B0BDE8F08101A903F0F4FC22
:100D80000028F2D1009804F08CFE3046019903F05F
:100D90005BFE736A5E686B79012B21D1002CD8D180
:100DA0002B68834298BF002621460020FFF780FB76
:100DB0006946C0B200F0F4FF0028D6D10098202385
:100DC0003A46314604F06EFE04460028CDD1002D8F
:100DD000CCD03C680D4BE41A18BF4FF0FF34C5E788
:100DE000022BB6D12B68012B05D98342B1D8B4FAB6
:100DF00084F46409ADE7ACD1002CD5D0012CA8D186
:100E00002C79023C18BF0124A3E700BF3DB8F3963C
:100E10002DE9F04F074685B00C46014600201646E6
:100E2000FFF7BEFC051E50DB3846E46D03F091FC75
:100E30005FFA84F96B1E09FB03084FF0000A4FF0BC
:100E4000010B4FF0FF349DB9BAF1010F03DD2148CA
:100E5000452104F019FE631C06D07F2C2ADC0134E6
:100E600040F201133460B380284605B0BDE8F08F2E
:100E70006B1E00930DF10F0201234146384604F02A
:100E800011FE031E019322DB01220DF10F013846F2
:100E900005F028F9019B40B15B4501D00AF1010A38
:100EA000009DA8EB09089B46CDE7B4F1FF3F08BFC2
:100EB0002C46F5E70223803C7371631004F00104B3
:100EC0000133013433603471CEE70725CCE70125C7
:100ED000CAE700BFF96B000038B5816A426D9142E4
:100EE00008D0531C8B4205D01348572104F0CCFD89
:100EF000002038BD80291CD910485721F6E7446AE4
:100F0000056D04EBC30405EBC30564686D68AC4272
:100F100002D00B485721E9E701339A42EFD19142C1
:100F200005D9436A03EBC2035B68A342F1D10120F8
:100F3000DFE700231C46F0E71C6C0000546C000047
:100F4000836C000000B589B004A9022005F03CF9CB
:100F50009DF81020012A41D0254B2649032A08BFBD
:100F60000B469DF8132002929DF8122001929DF8E5
:100F70001120214800924921204A04F085FD06A94C
:100F8000052005F021F99DF81820012A28D0184BDA
:100F90001849032A08BF0B469DF81B2002929DF8B2
:100FA0001A2001929DF8192000921348144A4921F1
:100FB00004F06AFD9DF81030012B13D19DF812301A
:100FC000032B0FD19DF81830012B0BD00D48492170
:100FD00004F05AFD022009B05DF804FB0A4BC0E79B
:100FE000094BD9E70948492104F04EFD0020F2E7FA
:100FF000AF6C0000B86C0000CC6C0000BE6C000050
:101000000D6D00001D6D0000B36C00003C6D000014
:1010100070B54B6814461E4A03F0FF23934286B016
:1010200006460D462FD10B68012B2CD104A9204672
:1010300002F0FEF99DF81020012A26D0154B164922
:10104000032A08BF0B469DF8132002929DF8122038
:1010500001929DF8112000921048114A492104F094
:1010600013FD9DF81030032B0DD12146304603F0BF
:101070005AFC204605F09BF8A968204603F082FB45
:10108000204602F0B5F906B070BD064BDBE700BFA5
:1010900000010004AF6C0000B86C0000CC6C0000D4
:1010A0000D6D0000B36C00002DE9F04F164689B0BD
:1010B00005460C467448492104F0E6FC31462846B2
:1010C00003F0C2FC6B6A824620465E6803F0EAFBCE
:1010D000E8B1E86D03F038FBAF6A0023013F334409
:1010E000834201D2013FFAE7BA4510D3674857213E
:1010F00004F0CAFC07FB06F365480AFB06625721A9
:1011000004F0C2FC0123E37109B0BDE8F08F06A929
:10111000022000F045FE07A9052000F041FE079AD5
:1011200021462846FFF774FF6379012B4BD1DFF886
:1011300064B1574641E02268C2F1010353449F4223
:101140003AD86B6A196853F8370003EBC703012AD2
:1011500053F8083CA3EB0103A0EB0109049311D160
:10116000079B0393E368022B08D04146284603F00F
:10117000DAFB22464146284603F00BFC0399284639
:1011800003F0D1FB32464946404603F0CAFB049BBC
:1011900042464146CDE900962846FFF715FC214618
:1011A000284603F08CFB23680133236020B1DBF871
:1011B00000300133CBF80030013FDDF81880002FFC
:1011C000B9D101232360022363710127BA45DDF8F9
:1011D000189006D2484604F064FC079804F061FCBD
:1011E00092E723689F424DD36A6ADDF81CB052F83B
:1011F00037100491FB00083B11680391D1582A6D08
:10120000D0581368A0EB03082379012B38D1039B36
:101210003246C91A4846059103F083FB05990091AF
:1012200043464A46594601962846FFF7CDFB2146DC
:10123000284603F044FB0223237118B1154A1368B2
:101240000133136032464146584603F06AFBDDE93C
:10125000032349469B1ACDE900865A462846FFF7E4
:10126000B3FB2146284603F02AFB236801332360A1
:101270000123237130B1074A13680133136001E081
:10128000022BDFD00137A1E7536D00007C6D000019
:10129000AB6D0000B40D00200A4619B1024B0021CD
:1012A0001B681847704700BF08000020F0B50822EF
:1012B00089B003F096FDCB6A03930B6B04934B6BE1
:1012C00005938B6B0693CB6B079313466A460C46CC
:1012D0000646002711461046CDE90177009703F036
:1012E0008EFC31460546304603F089FC216B0391A4
:1012F000616B0491A16B0591E16B0544CDE9061783
:101300001046114603F07BFC31460544304603F09D
:1013100076FC0544206A0090606A0190A06A029001
:10132000A06B0690E06B07903046CDE904770397F9
:1013300003F065FC0544606A0090A06AD4F838C0E8
:101340000190E06A0290CDF810C0606BD4F83CC008
:101350000390CDE905C0206A0790304603F04FFCAA
:101360000544E06A0090206B0190606B0290206A57
:101370000690A06A07903046CDE90477039703F002
:1013800063FD236B0093636B0193A36B0293E36B89
:101390000393636A0693E36A07932D1A0823304682
:1013A00003F052FD636B0093A36B0193E36B029315
:1013B000236A0393636A0493A36ACDE90537236B19
:1013C00007932D1A0823304603F03EFDA36B0093CC
:1013D000E36BCDE90137636A0393A36A0493E36A7D
:1013E0000593636B07932D1A0823304603F02CFDF9
:1013F0002D1A10D40D4C35B908223146204603F081
:10140000FCFC01280FD0082322463146304603F069
:101410001BFD2D1AEFE7054A08233146304603F03D
:10142000EEFB2D18F8D409B0F0BD00BF3066000007
:10143000004870472C6600002DE9F04F9DB003680E
:1014400002934368039383680493C3680593036915
:1014500006934369079383690893C3690993DDE998
:10146000062CDDE904BEDDE902469846DFF890A1CE
:10147000089B00930027CD595AF8049B0CAB2DBA5A
:10148000DD514FEAF223A94483EAB213009D83EAB7
:1014900072634B4425EA020502EA0C0985EA090554
:1014A0002B44434486EA0B054FEA743888EAB408B3
:1014B000254006EA0B0985EA090588EAB45804378D
:1014C000A844402F03EB0E054344DE46DDF80080C0
:1014D00040F087804B490A914FF0100A51460AF1BB
:1014E000010A0DF1700E0AF00F070EEB870701F0ED
:1014F0000F0957F8407C01974FEAB74888EAF71878
:1015000001F10E0707F00F070EEB8707093157F8B7
:10151000407C4FEAF74E8EEA774ECDF82CE001F092
:101520000F010DF1700E0EEB81010EEB890951F8E0
:10153000401C59F840EC7144DDF804E088EADE080C
:10154000DDF82CE041448EEA972E714405EA02084A
:101550004FEAF52E2CEA050787EA08078EEAB51E42
:10156000DDF8288049F8401C8EEA756E774458F8FB
:1015700004EFCDF8288077440F440099CDF800C0DF
:1015800039444FEA733E84EA06078EEAB30E1F40E1
:1015900004EA06088EEAB35E87EA08077744BAF1E0
:1015A000400F01EB0B0E0F44B34622D10299394490
:1015B000016003991944049B416023448360059BA7
:1015C0003344C360069B73440361079B2B44436110
:1015D000089B13448361099B6344C3611DB0BDE84C
:1015E000F08FCDF800C0B346944626462A461C46E6
:1015F00041E7944626462A461C4675463B466DE71B
:10160000DC6600001867000010B50446C8B17022FF
:10161000002104F04EF90B4B0B4A0C490C48C4E96D
:1016200000230C4BC4E902130B4BC4E904030B4B1E
:10163000A36103F17453A3F52303A3F69243E3617B
:10164000012010BD85AE67BB67E6096A72F36E3C88
:101650007F520E513AF54FA58C68059BABD9831F7D
:10166000BFF36F8F72B6124B4FF0FF32C3F880207A
:10167000C3F88420C3F88820C3F88C20C3F89020D6
:10168000C3F89420C3F89820C3F89C20C3F88021A5
:10169000C3F88421C3F88821C3F88C21C3F89021B2
:1016A000C3F89421C3F89821C3F89C21704700BF68
:1016B00000E100E0134A4FF0FF3301215160C2F80E
:1016C0004833C2F8083302F5C0425160C2F84833CB
:1016D000C2F8083302F598325160C2F84833C2F8B4
:1016E0000833A2F508320021C2F80015C2F8083309
:1016F00002F5E832C2F808354FF08042C2F80833EC
:10170000704700BF00B00040014B1B68184700BF86
:101710000C000020014B1860704700BF0C00002037
:1017200007B50B46002102460091034800F014F96A
:1017300003B05DF804FB00BF091700002DE9F04776
:10174000058B04462807904611D4022905F00705A9
:1017500040F0CD80204604F0BDF878B10138218BEF
:10176000042811D8DFE800F0C3106D859500012929
:101770000CBF45F0100545F02005258388F311883E
:10178000BFF36F8FBDE8F08701F0070AAA4500F0AC
:10179000A6800027B9463E46A368002B00F0BD8016
:1017A00041F00801218388F31188BFF36F8FA1688E
:1017B000002900F0BB800D68002900F0B780D1F847
:1017C0000480334652462046C047002D76D02B6811
:1017D00029461D46F0E701F007035A1F012A1BD8CE
:1017E000002221F00701062B276889B2C4E90022F4
:1017F00009D13B4603E0628B013262831B68002BF8
:10180000F9D141F002012183204604F063F8002859
:101810007BD041F0200177E0042B0AD121F00701B1
:1018200089B22183204604F055F810B141F020011F
:101830002183218B01F0070AAA4550D00027B94621
:10184000AAE7236921F0070141F00601062DD3F82C
:10185000009021832DD1B9F1000F40D041F0080153
:10186000218388F31188BFF36F8F3A492046C84718
:1018700029E021F00701236941F0040189B2042D18
:10188000D3F804902183E6D000273E464FF0040AA7
:1018900082E721F00701236941F0050189B2052D96
:1018A000D3F808902183D6D000273E464FF0050A92
:1018B00072E700273E464FF0060A6DE72B4687E7A2
:1018C000B9F1000FD1D14FF02003EFF3118883F36A
:1018D0001288BFF36F8F238B23F008032383258B9C
:1018E000EA062ED525F01003238305F00705666967
:1018F000218B002EBFF66FAF00232768C4E90033A9
:1019000021F0070141F001012183218B01F0070A39
:10191000AA454FF000097FF43FAF002F9BD041F064
:101920000801218388F31188BFF36F8F002FC7D080
:101930003D68394633465246204603F0F7FF2F46AE
:10194000F4E7AB067FF51AAF25F02003238305F0FB
:101950000705FFE6595900002DE9F04F8DB01D46EF
:10196000531E8246019103934FF00009039B587860
:10197000252803F1010419D11E4600204FF0FF383D
:10198000023603460290444631780396392954D8EA
:101990001F2914D8002900F0EE8101992520D04795
:1019A00001993078D04709F10209DFE7002800F0FB
:1019B000E2810199D04709F101090394D6E7A1F129
:1019C0002002192AE9D801A757F822F0351A000099
:1019D0009B1900009B190000351A00009B1900009C
:1019E000B51A00009B1900009B1900009B1900000C
:1019F0009B190000011B0000351A00009B19000014
:101A0000151B0000C11A00009B190000CF1A00002E
:101A1000EF1A0000EF1A0000EF1A0000EF1A0000A2
:101A2000EF1A0000EF1A0000EF1A0000EF1A000092
:101A3000EF1A000008460136A6E7582900F0EB80AF
:101A4000A1F16302D7B2172FA7D8172AA5D801A7EB
:101A500057F822F0BD1C00003B1B00009B19000042
:101A60009B1900009B1900001B1B00003B1B000082
:101A70009B1900009B1900001B1B00009B19000014
:101A80009B1900009B190000F11B00009B1900002E
:101A90009B190000911C00009B1900003B1B0000DB
:101AA0009B1900009B190000F11B00009B1900000E
:101AB0001B1B000001992520D04709F1010955E7BA
:101AC000029A02F0FE0202924FF00008B3E7002CE7
:101AD0000DDAB8F1000F0DDA029A002A00F0438106
:101AE00024EAE4740A2202FB0414303CA3E7B8F1B0
:101AF000000FF5DB0A2202FB0812A2F130089AE778
:101B0000B8F1000F55F8042B80F22F81002A80F2E3
:101B10002E815442022202928DE7682903D1682B5C
:101B200006D1482387E76C2902D16C2B00F0218174
:101B3000002B7FF432AF0B467DE77A2B06D1752957
:101B400055F8046B14D14FF0000B0CE06C2BF6D061
:101B50004C2BF4D1073525F007037529D3E9006B29
:101B600003F1080506D120283BD1854F013C09E04F
:101B70004FEAE67BBBF1000FF5DA7642814F6BEB63
:101B80004B0B013C0DF12D030593002304933046CC
:101B900059460A220023FEF7A1FA059B303203F8CA
:101BA000012DB4460593049B5A46BCF10A0F8B469F
:101BB00072F1000203F1FF3106460491E7D2C3F14E
:101BC000010B30330DEB0306B8F1000FA6F104064C
:101BD0006DDA029BD9077DD4A8EB0B03A4EB0B04B1
:101BE00013E02B280ABF684F684F04F1FF34C9E7A0
:101BF00070290FD155F8042B0023FAB9634F644EB6
:101C0000053C6FF004034FF0050B029A920770D465
:101C1000A04666E078216C2B03D155F8042B0023F5
:101C200008E04C2BF9D1073525F007031D465B680A
:101C300055F8082B232825D1880621D5554F023C7D
:101C400001F06001A1F1390B0DF12D0E002602F01B
:101C50000F01092988BF594430310EF8011D102A9F
:101C60004FEA121141EA03714FEA131C73F10003AA
:101C700006F1FF3008D2C6F1010B06F13003A1E7EF
:101C8000454FDCE7414FDBE706460A466346DEE7A1
:101C900055F8046B304603F084FFB8F1000F83461B
:101CA00002DB4045A8BFC346384F4FF00008A8EB01
:101CB0000B03002B92DDA4EB0804A6E755F8043BC8
:101CC0008DF81830314F013C4FF0FF334FF0010BCE
:101CD00006AE9AE7A046EAE7029301992020D04792
:101CE000029BB8F10108F7D524EAE472013C914463
:101CF000A41AB84606E0049302920199D047029ACA
:101D0000049B9046424612F8010B0028F3D11A4674
:101D1000013A15D5002BACBFC7EB03077F425B46EA
:101D2000013B15D5BBF1000FA8BF5F444F442646C9
:101D3000013E14D5002CA8BF3F1907EB080915E692
:101D40000493029201993020D047049B029ADFE766
:101D50000293019916F8010BD047029BE0E7019925
:101D60002020D047E4E70122D5E6904663E61446FA
:101D700061E64C235FE648460DB0BDE8F08F00BF3A
:101D80004A6E0000486E00004C6E0000F86B0000C8
:101D9000546E00004E6E0000516E000001F03ABC1F
:101DA00070B5114B1C680D46DCB1104B196800234F
:101DB0008B4202DB6FF0010070BD224612F8106BFF
:101DC000864202D001331446F2E7E06810B96FF0A2
:101DD0001200F1E704F0CBFA0028F8D02C600020C4
:101DE000EAE76FF00C00E7E710000020E067000072
:101DF00070B588B005460C46C0B269461646FFF776
:101E0000CFFF00281BDB0098C8B1436802938368AA
:101E100022680195CDE903360023CDE90623059319
:101E2000C56803F03EFE6DB12846084901AA03F0DB
:101E3000F2FF079808B9059B236008B070BD6FF0EA
:101E40001500FAE76FF01200F7E700BF3D5B0000F6
:101E5000014910220A60704710ED00E072B6494057
:101E600081F31188BFF34F8F20BF80F3118862B6D2
:101E7000704700BF40B2002807DB044A4109012334
:101E800000F01F00834042F82130704700E100E07D
:101E900040B200280CDB4309064900F01F00203344
:101EA0000122824041F82320BFF34F8FBFF36F8F91
:101EB000704700BF00E100E0054B420900F01F0041
:101EC00053F82220012303FA00F01040704700BFAE
:101ED00000E100E040B20028A8BF00F1604001F13D
:101EE0000101B8BF064B4FEA4111ACBF00F561409C
:101EF00000F00F00C9B2B4BF195480F80013704746
:101F000014ED00E030BFFFF7FDBF00BF0B4A08B57E
:101F10000B4B22F07F029A60BFF34F8FBFF36F8F9E
:101F2000D3F8882022F47002C3F8882002F012FA55
:101F300002F058FA00F0AAF902F018FA00000000C6
:101F400000ED00E01EF0040F0CBFEFF30880EFF38C
:101F50000980816911F8021C0229FFD001B503F044
:101F600011FE01BD10F1160F074B08D0984208D39F
:101F70004033834205D98B4203D90448704740332C
:101F8000F9E70020704700BF801C0020C01C002023
:101F900004462025084611461A46084B83F3098853
:101FA00063B64FF0000383F31188BFF36F8FA04730
:101FB00085F31188BFF36F8FFEE700BFC044002098
:101FC00001B5EFF30580A0F110004FEAC00004490D
:101FD000014409C99847BDE801400249084700008B
:101FE00054640000E91F0000704700BF70B5264B25
:101FF00015469A6A12F0100F9A6A14BF1124102421
:1020000012F0080F9A6A18BF1224920706460AD5E2
:10201000586B9A6A140634D519B19A6A22F0800274
:102020009A62132401E06FF01500174B9A6A12F0C0
:10203000010F9A6A18BF142412F0200F9A6A18BF71
:102040001524D20602D49B6A9B070AD50E4B5B6807
:10205000190506D53146FFF785FF10B180F30988D1
:102060000224094B9A6A920642BF5A6A22F400522D
:102070005A629A6A42F0FF029A6200232B7020464D
:1020800070BD6FF01500CCE700ED00E0134B9A6ACD
:1020900012F0007F9A6A14BF1E201D2012F0807F6C
:1020A0009A6A18BF1F2012F4002F9A6A18BF2120C5
:1020B00012F4802F9A6A18BF222012F4003F9A6A05
:1020C00018BF232012F4803F9A6A6FEA02426FEA37
:1020D00012429A6218BF2420704700BF00ED00E052
:1020E00010B5194B0246986A9C6A10F4805F14BFC1
:1020F0001720162014F4006F9C6A18BF1820A4053E
:1021000009D5986B986A000404D51AB19A6A22F42A
:1021100000429A6219200C4B9A6A12F4806F9A6AF4
:1021200018BF1A20D2050CD49B6A13F4005F18BFA5
:102130001C20054A936A43F47F43936200230B708B
:1021400010BD1B20F5E700BF00ED00E070B5454B6A
:102150005B688AB00546C3F30803002686F311883E
:10216000BFF36F8F02F07F40B0F17F4F11D102F0CB
:102170000C0008280DD010074CBF0D460126002288
:10218000033B8DF80720032B05D8DFE803F01E5D25
:10219000615A3546F3E700249DF807309BB92022A9
:1021A000294602A803F014FD099B002E54D0C3F366
:1021B000080222B96FEA53236FEA4323099302A965
:1021C000204603F0DDFC0AB070BD264BDA6A9107A9
:1021D000E1D4DA6A002ADEDBDA6A5200DBD55A691A
:1021E000A96942F480725A61BFF34F8FBFF36F8FBA
:1021F0005A6931F8021C22F480725A61BFF34F8F82
:10220000BFF36F8F4DF6027291420AD09A6AD2B232
:102210004AB10DF1070201212846FFF7E7FE044607
:10222000BAE72C68B8E79A6A12F47F4F05D00DF12F
:1022300007010120FFF754FFF1E79B6AB3F5803FE8
:10224000A9D3FFF723FFEAE70DF107020021E3E737
:102250000DF107010020EDE723F4FF7323F00103E4
:10226000ACE700BF00ED00E0024A536943F0100301
:102270005361704700ED00E0EFF30880EFF3098150
:1022800001B57246FFF762FF01BD00BF044800239D
:102290002021C2180133272B82F80013F9D170478F
:1022A00000E100E0002080F31488BFF36F8FFFF798
:1022B00075FD00200D490860BFF34F8F0C4880F377
:1022C000088800F03DF8202080F3118809484FF479
:1022D0000461401880F30988EFF314800221084359
:1022E00080F31488BFF36F8FFFF710FE94ED00E0CA
:1022F0008044002040140020BFF34F8F0549064B57
:10230000CA6802F4E0621343CB60BFF34F8F00BF93
:10231000FDE700BF00ED00E00400FA050749D1F831
:1023200090200023C2F307221846934200DB704737
:10233000C1F89830C1F8A0000133F6E700ED00E0E5
:1023400008B572B6002383F31388FFF7E7FF144B39
:102350004FF0FF32C3F88020C3F88420C3F88820F0
:10236000C3F88C20C3F89020C3F89420C3F89820B9
:10237000C3F89C20C3F88021C3F88421C3F88821C6
:10238000C3F88C21C3F89021C3F89421C3F8982195
:10239000C3F89C2162B6BFF34F8FBFF36F8F08BDA8
:1023A00000E100E0024B034A0348022100F060B85C
:1023B000000001200000002054680000F0B5204E0D
:1023C00000258D4239DA446874B353B104F1FF3CFF
:1023D00014EA0C0F2FD11F2C2DD907681CEA070F08
:1023E00029D1202C0768D0F808C05FFA82FE1ED9D8
:1023F000B4F1004F1DD8013CB4FA84F4C4F11F04B9
:102400006400BEF1070F4CEA040C14D827F01F0437
:10241000144344F01004C6F89820C6F89C404CF0D1
:102420000104C6F8A040013201350C30C9E7082488
:10243000E7E73E24E5E76FF015021046F0BD00BF68
:1024400000ED00E0044B0522C3F89420BFF34F8F4A
:10245000BFF36F8F704700BF00ED00E0BFF35F8FE9
:10246000024B0022C3F89420704700BF00ED00E04B
:1024700010B5034C01232278FFF7A0FF207010BD98
:10248000F40F002014490868082810B521D8FFF778
:10249000E5FF124C49680022904201F10C0105D180
:1024A0000F4B1870FFF7CEFF002010BDC4F8982026
:1024B00051F80C3C23F01F03134343F01003C4F8FE
:1024C0009C3051F8043C43F00103C4F8A0300132C1
:1024D000E2E74FF0FF30E8E76C68000000ED00E055
:1024E000F40F0020014B1860704700BF140000205B
:1024F000044A0123C2F840354FF080420020C2F860
:102500007835704700E0014020B1034B800143F073
:1025100001031847704700BF00660000084B70B504
:10252000C31A0D4607499B100446594306484022EA
:1025300003F081FB2B4601462046BDE8704018475A
:10254000CC0D0020B76DDBB60464000073B50C4CF5
:102550000C4A4023041B00930D460B460A49A41065
:1025600061430646094803F092FB011E05DA304636
:102570002B4602B0BDE87040184702B070BD00BFE6
:10258000CC0D0020FF5C0000B76DDBB604640000DA
:1025900010B54FF02003EFF3118483F31288BFF3DB
:1025A0006F8F074A136823F00201DB07116002D422
:1025B000012003F05EFE84F31188BFF36F8F10BD1E
:1025C0001C0E0020002270B5012104461046FFF7C2
:1025D00081FC0F4801F006FA0E4B984215D103F02A
:1025E0003BFE26690C49304603F0C4F900280BDB9A
:1025F000012535642469084904F11C0003F0BAF987
:10260000002801DBE564002070BD6FF00400FBE7EB
:10261000512600000000AD0B8C68000070B501462B
:102620000C2309484B43C418D4E90E56403300220A
:102630001844A26303F0ECFA2DB132462B4603484E
:10264000BDE87040184770BDCC0D00200464000048
:1026500010B1012804D07047034B1B6C5B0701D1FC
:10266000FFF7DCBF704700BFCC0D002008B54FF06E
:102670002003EFF3118183F31288BFF36F8F124AA7
:10268000136843F002001060DA0708D481F3118860
:10269000BFF36F8F0120BDE8084001F0B3B94FF0E0
:1026A0008043D3F80C24D3F80C34DB07EED507486D
:1026B00003F0AEFA81F31188BFF36F8F0020BDE8FD
:1026C0000840FFF7ABBF00BF1C0E00200C0E00201F
:1026D00010B5074C23782BB94FF4A57003F042FED8
:1026E00001232370BDE81040002001F08BB900BF2A
:1026F000F50F00202DE9F8433649BFF35B8F0746FD
:10270000012251E8003F41E800200028F9D1BFF341
:102710005B8F33B9304931484B60CB608A6003F03E
:102720003CF97B1E012B2DD8012F07D14FF08043A0
:10273000D3F81C3403F00303012B23D003F036FE3F
:10274000054608BB264B1B78F3B14FF080430222AD
:10275000C3F808230646DFF88C904FF080444FF012
:102760000108D4F81824D4F81834D20316D503F08D
:102770000303012B01D0012F10D12DB386F3118853
:10278000BFF36F8FBDE8F8834FF02003EFF311869E
:1027900083F31288BFF36F8F0125DCE73046FFF724
:1027A0005DFBD4F81835002BDBD1D4F80421002AC6
:1027B000D7D0C4F80431D4F80431C4F81885C9F866
:1027C0008081C4F80880CCE74FF080430222C3F830
:1027D0000423D7E7C80D0020B80D0020E80D002025
:1027E0000814002000E100E008B5074803F0BFFD31
:1027F00038B10648FFF776FE0448FEF78BFF00204D
:1028000008BD6FF01200FBE72C64000011280000E7
:102810000A2838B5074D044604D1AB680D215B6822
:1028200028469847AB6803485B68E1B29847204662
:1028300038BD00BF2C640000024B0B600123136005
:10284000704700BF200E002000487047E06800007D
:1028500010B503F07CFD034C206003F074FD606054
:10286000002010BD200E0020F8B50E463046194657
:1028700017461D4603F04FFAB8B146EA050414F0B6
:10288000030412D14DB12B19032BA6EB040006D87B
:10289000074AD2F80034DB07FBD50020F8BD3B1B0C
:1028A000043C196801F0D2FCEDE76FF01500F5E784
:1028B00000E0014030B54068057B01F01F04B2F52F
:1028C000001F85B044EA451405D1204601F082FB83
:1028D000002005B030BD0025B2F5800FCDE90255CE
:1028E00014D1B3F1007F0CBF042305238DF8083009
:1028F0000023194602AA204601F0A0F9214B984274
:1029000039D10121204601F019FBE1E7B3F1C06F95
:1029100026D0B3F1007F14BF012302238DF80830C5
:10292000836823FA01F111F00101E1D1B2F1A07F36
:10293000DED104F01F03620903F5E0731ED14FF0EE
:10294000A04252F82330DB07D2D40DF10705294607
:10295000204601F09FFA0C4B984203D00395C7E73D
:102960000323DBE7284601F0E3FA064B9842F5D053
:102970006FF00B00ADE76FF01500AAE751F82330B8
:10298000FFDE00BF0000AD0B0400AD0B10B501F081
:10299000BFFA044668B901F093FA084B98420AD18D
:1029A0000748214601F070FA224605210620FFF76C
:1029B00091FA002010BD6FF00400FBE70000AD0BA2
:1029C000C5290000430970B507D10B4B596821B1E7
:1029D00001250C68094E854001B970BD8A682A40FE
:1029E00002D04B68304698471CB1236821461C46EC
:1029F000F2E72346FAE700BF280E00201864000023
:102A00002DE9FF4147683B7B01F01F0545EA43156F
:102A10000E4628460DF10701144601F03BFA14F466
:102A2000403F80460DD1284601F0FAFA3D4B9845CB
:102A300003D19DF8070001F075FA002004B0BDE84D
:102A4000F0810023194602AA2846CDE9023301F09D
:102A5000F5F8344B984214D1804503D19DF8070016
:102A600001F060FAA3034ED540F206332340B3F5DC
:102A7000837F1AD00DD8062B18D005D8B3B1022BFE
:102A800033D06FF01500D9E7B3F5807FF9D101237A
:102A90000CE040F20222934229D0B3F5407F28D0C7
:102AA000B3F5007FEDD1022300E007238DF8083055
:102AB00084F48033C3F30043E0068DF8093054BF3B
:102AC000C4F34013032321038DF80A3013D57A6829
:102AD0000123B340C2F80835002202A9284601F0BC
:102AE0005DF9104B9842A8D0CBE70423DEE705231D
:102AF000DCE70323DAE7620341BF01237A68B340CE
:102B0000C2F80C35E8E7E3064FF0000354BFC4F306
:102B1000401403241A4602A928468DF8084001F003
:102B20008DF8DEE70000AD0BF0B5524D00EB8101F2
:102B3000814201D10020F0BD046804F07F03C4F39A
:102B400043267F2B4FEA144408BF4FF0FF33192C64
:102B50007ED8DFE804F00D13191C1F251C7D7D7D38
:102B60007D345D7D7D7D7D7D7D7D7D7D6074777A2D
:102B7000C2F80C355F1C57D10430D9E7C2F81435C0
:102B80005C1CF9D0002458E0C2F80835F2E7C2F81E
:102B90001035F5E75F1CC2F80835EDD0002404E0DD
:102BA0005C1CC2F80C35E7D001245F0953D1012722
:102BB0004FF0A04C07FA03FECCF80CE508E0C2F891
:102BC0000835002EDCD15C1CD6D000242746062612
:102BD000D0F800E00EF4005CBCF1000F1CBF012433
:102BE000002703F01F0C5B093DD14FEA8C0C0CF160
:102BF000A04CCEF3C11EDCF800372B4043EA8E0315
:102C000043EA06233B4343EA4403CCF80037B3E7E7
:102C1000C2F80C35D5E7C2F860355F1C0468ABD04C
:102C2000C4F38034002CBFD05C0918D101244FF0CC
:102C3000A04704FA03FCC7F808C52746C8E7C2F84E
:102C40006435EAE7C2F86835E7E7C2F86C35E4E7CF
:102C50006FF085006FE70023C3F80C35FFDE00231B
:102C6000C3F80835FAE70CF5E07C002353F82C3064
:102C7000F4E700BFF0F8FCFFF8B5044607690D461D
:102C800003F094FB90B92C4B1B787BB164266068F1
:102C900003F078F9E0B9012003F0D2FA013EF6D151
:102CA000F4E786F31188BFF36F8FEFE74FF020034F
:102CB000EFF3118683F31288BFF36F8F606831469C
:102CC00003F060F990B986F31188BFF36F8FEDE7D9
:102CD0004FF02003EFF3118683F31288BFF36F8F59
:102CE0006068314603F04EF90028DAD03B691D7068
:102CF000626838691368C3F844050120C3F84805C1
:102D00000020C3F82001D3F82051C3F858015268BD
:102D1000D3F85801D20608D5626812680820C2F8B4
:102D200000054FF48002C3F8042301229A6081F366
:102D30001188BFF36F8FF8BD0814002070B54B7970
:102D4000012B20D18B79032B1DD1CD790DB1012D14
:102D500019D10A7912B1022A15D10E220B684468E2
:102D6000B3F5164F266864D02BD8B3F5165F63D041
:102D700014D8B3F5966F61D008D8B3F5967F60D0BC
:102D8000B3F5167F60D06FF0850051E0B3F5166F94
:102D90005DD0B3F5965FF6D1374B3CE0B3F5E14F2C
:102DA00058D007D8B3F5615F56D0B3F5964FEAD146
:102DB000324B30E047F61224A342E4D14FF4000333
:102DC00029E0B3F5613F49D013D8B3F5963F48D019
:102DD00009D84DF6C024A34245D0B3F5614FD2D1F6
:102DE0004FF46B0317E0B3F5E13FCCD14FF0EB7339
:102DF00011E0B3F5612F39D008D8214CA34238D067
:102E0000B3F5E12FBFD14FF0E86304E01D4CA342BE
:102E1000B9D14FF080530469C6F8243543681B6864
:102E20002A43C3F86C2503C9231D83E8030000204F
:102E300070BD4FF41D03EEE7134BECE74FF49E23F8
:102E4000E9E74FF4A033E6E74FF41C33E3E74FF430
:102E50001D23E0E70D4BDEE70D4BDCE74FF06C7315
:102E6000D9E70C4BD7E74FF46503D4E74FF0706315
:102E7000D1E74FF08063CEE700B0130000A04E0012
:102E800090D0030040420F000050270000C07500A2
:102E900000F03A0000903A012DE9F7438046002205
:102EA00001210220FFF716F80220FEF7E3FFD8F811
:102EB0000470D8F810603C680021C4F80015C6F80A
:102EC0000080D7F80C9001AA484603F025F8051EAB
:102ED0004CDB019BD9F8002019791868FFF724FE14
:102EE000051E43DB311D4046FFF728FF054600283D
:102EF0003CD17B68990712D506F1180001F0B4F9AE
:102F00001E4B984236D1307E04F10C0204F59071CC
:102F100003F098F9337E0120984000F0FBFC082371
:102F2000C4F800353B7A53B9C4F81031D4F81031E5
:102F30007369C4F834350123C4F8383523607B68DD
:102F40009A075CBF4FF48073C4F804337B68DB06D8
:102F500044BF4FF48003C4F804333369C4F84435E4
:102F60000023C4F848350123A360E360284603B07A
:102F7000BDE8F0836FF00405F8E700BF0000AD0B7B
:102F800070B5012383400E4ABFF35B8FDC4352E8E8
:102F9000001F01EA040542E80056002EF7D1BFF3F6
:102FA0005B8F4FF4803282400648C0F80823BFF39D
:102FB0005F8FBFF36F8F0B4214BF0120002070BDE5
:102FC000380E00200010014070B40E49D1E90034E1
:102FD000D01AC31844F1000422F07F46C1E900343E
:102FE000A6F50013B3F5400F09D2074B1B681A0A68
:102FF0001B069C19054B42F10005C3E9004570BC56
:1030000001F050BAB80000203C0E0020C0000020A3
:1030100011B3BFF35B8F0123104A834052E800CF06
:103020004CEA030C42E800C10029F7D1BFF35B8FE3
:103030000B4A4FF480338340C2F80433094BBFF38B
:103040005B8F1B68BFF35B8FC340DB0742BF064B40
:103050004FF40032C3F80021704700BF380E002043
:1030600000100140340E002000E100E00D4B186814
:10307000010A0006BFF35F8F0B4BD3F80435181815
:1030800041F10001B3F5801F0AD2084BD3E90023B8
:10309000904271EB030303D210F1807041F1000103
:1030A000704700BF3C0E002000100140C00000200F
:1030B0002DE9F04F85B016461F469DF840A0044606
:1030C000FFF75EFF0190FFF7D1FFB04271EB0703FE
:1030D00054D23E4B301A67EB0101984271F1000166
:1030E0004FD23B4B03EB0413D3E902239F4208BFAB
:1030F00096425ED037494FF4803804F1500508FA03
:1031000004F8AD00C1F848832046ADB202F083FF59
:1031100026F07F4B05F1804504F5A87305F5883549
:10312000DC464FF003090293029A2CF07F4341F8EA
:103130002230C1F84483D1F80435274A6FF00200E9
:10314000C01A604420F07F40904232D9286868B1AC
:10315000D1F804350393A3EB0B0020F07F40B0F5CA
:10316000000F26D9204602F056FF039BBAF1000F4C
:1031700007D109EB030C09F10109D5E7BAF1000FFA
:1031800009D06FF0150520460199FFF741FF284649
:1031900005B0BDE8F08F0123104ABFF35B8FA34059
:1031A00052E8000F184342E800010029F8D1BFF3AC
:1031B0005B8F07490E98230101EB0412C8500F9B47
:1031C0005360C2E902670025DDE700BF010080000F
:1031D000A800002000100140FDFF7F00340E0020F9
:1031E0007FB51C4C1C4BC4F80833C4F848331B4B48
:1031F00000254FF0FF304FF0FF31C4F80855C3E908
:1032000002014FF48033C4F80433154B02264FF407
:1032100000320121C4F804631120C3F880212A463A
:10322000FEF758FE1120FEF725FE0E4A0123A3608B
:10323000236013600C4B0D4A0093CDE90155002328
:103240002846FFF735FF3046FFF754FA284604B00A
:1032500070BD00BF0010014003000F00A800002057
:1032600000E100E0380E0020C92F0000FFFF7F00C2
:103270002DE9F7432F4CD4F8043399070BD5D4F834
:10328000043143B12C4A0023C4F80431D4F804318A
:10329000136801331360D4F80433DA032AD5BFF37B
:1032A0005B8F264B53E8002F22F0010143E800100A
:1032B0000028F7D1BFF35B8FD30702D4D4F8403195
:1032C000C3B10025C4F84051D4F84031FFF7CEFE19
:1032D0004FF02003EFF3118283F31288BFF36F8F57
:1032E000174BD3E90267B042B94106D282F3118885
:1032F000BFF36F8F03B0BDE8F0834FF0FF384FF09E
:10330000FF39C3E90289D3E900101D604FF480330F
:10331000C4F84833C4F84051D4F8403182F31188DE
:10332000BFF36F8F0029E5D0009032463B46284618
:103330008847DFE7001001403C0E0020340E0020DB
:10334000A80000201FB5431C23D0012823DD134A09
:10335000134B9042D4BF04461C46FFF787FE114B27
:103360000F49D3E90023801AB0F5000F28BF0024CD
:1033700004448C4228BF0C46A2180B4900914FF020
:103380000000CDE9010043F10003FFF791FE04B016
:1033900010BD034CE1E70124DFE700BFFEFF7F0023
:1033A000FFFF7F00B8000020C92F000008B5FFF71D
:1033B0005DFE024B1B68C01A08BD00BFB8000020AC
:1033C00010B5084C012363601120FEF761FD064B28
:1033D000C4F80833C4F84833044B4FF40032C3F840
:1033E000802110BD0010014003000F0000E100E04B
:1033F00030B5816885B0103921F00704054602F028
:1034000096FB10220146684602F0EDFB07491022A8
:10341000684602F0DDFB10236A462146284602F08A
:1034200056FB003818BF012005B030BD846900008C
:1034300030B50D46816887B0102302AA10390446C2
:1034400002F030FB002802DA012007B030BD102264
:1034500002A9204602F046FE00283AD11E49102259
:1034600002A802F0A5FB00280CBF012302232B7049
:10347000204602F023FE012301460DF107022046FB
:1034800002F010FB0028DFDB9DF8073003F00F028D
:103490001B096A702B7101220DF10701204602F011
:1034A00021FE10B96B78042B03D901236B70002324
:1034B0002B71A268183A22F00702083AA91C20468C
:1034C00002F023FE0028BFD1E91C204602F076FE60
:1034D000BBE70323CBE700BF84690000F0B5354F9D
:1034E000460085B00546694657F8260002F06CFE96
:1034F000044610B1FF2005B0F0BD013602A957F80F
:10350000260002F061FE012837D12B482A464921C6
:1035100002F0BAFA294B02938DF80C409DF8006036
:103520009DF80870264C00222078314602F0CCFD30
:1035300050B36078394602F0C7FD28B3A378042B56
:1035400003D09DF8031099421ED1E378042B03D0D9
:103550009DF80B10994217D12379042B10D1627971
:10356000022A1DD1174B18482A46492102F08CFA2D
:103570006079831E022BBED9BCE70028CED0B9E704
:103580009DF802109942EAD00132032A04F10604A0
:10359000CAD10E482A46492102F076FA0120AAE74C
:1035A000032A05D00A4B0B49042A08BF0B46DAE769
:1035B000094BD8E764690000196F00000301030399
:1035C000AE6F0000FB6E0000646F0000886F0000AB
:1035D000006F0000126F0000F66E00004FF07043A5
:1035E00093F8E02F062A09D1D3F8E83FC3F3031379
:1035F000033B042B02D8024AD05C7047002070477E
:10360000CF6F0000024AD2F80034002BFBD0704785
:1036100000E0014010B502F004FE40B14FF08053CD
:103620008E4AD3F82433C3F30423C2F84035FFF79E
:10363000D5FF10B18A4B8B4A5A6702F0F2FD48B1B0
:103640004FF080534FF08042D3F84432C3F34233FB
:10365000C2F83C35FFF7C2FF30B1834AD2F8FC30E4
:1036600023F08073C2F8FC3002F0DBFD40B14FF074
:1036700080430022C3F80C21C3F81021C3F8382579
:10368000FFF7ACFF20B14FF080430322C3F8A02521
:10369000FFF7A4FF60B1754B0522C3F81026012285
:1036A000C3F888260022C3F818263F22C3F8142640
:1036B0004FF08053D3F83021511C09BF4FF07043B5
:1036C000D3F8343193F8E02FD3F8E83F08BFC3F3C1
:1036D0000313062A4DD1033B042B03D8644AD35C61
:1036E000002B46D04FF08052624BD2F80414C3F83E
:1036F0002015D2F80814C3F82415D2F80C14C3F816
:103700002815D2F81014C3F82C15D2F81414C3F8E5
:103710003015D2F81814C3F83415D2F81C14C3F8B5
:103720004015D2F82014C3F84415D2F82414C3F875
:103730004815D2F82814C3F84C15D2F82C14C3F845
:103740005015D2F83014C3F85415D2F83414C3F815
:103750006015D2F83814C3F86415D2F83C14C3F8D5
:103760006815D2F84014C3F86C15D2F84424C3F895
:10377000702502F056FD48B14FF080534FF0804263
:10378000D3F8583203F04F03C2F8E43E02F049FD8B
:1037900048B14FF08043D3F80024D20744BF6FF004
:1037A0000102C3F800244FF08053D3F83021062AD9
:1037B00026D1D3F83431033B042B02D82E4AD35CF4
:1037C00063B12E4AD2F83C3743F48063C2F83C37E9
:1037D0004FF08053D3F83031062B11D14FF0805386
:1037E000D3F83431033B042B02D8254AD35C3BB1D8
:1037F0004FF01023D3F808224FF08043C3F8582528
:103800004FF01023D3F80022002A03DBD3F8043250
:10381000002B22DA1B4901234FF01020C1F8043598
:103820001524FFF7EFFEC0F80042FFF7EBFEC0F8EB
:103830000442FFF7E7FE0023C1F80435FFF7E2FE7C
:10384000BFF34F8F0849104BCA6802F4E06213437C
:10385000CB60BFF34F8F00BFFDE710BD00300140CC
:1038600000C007400DF0ADBA00ED00E00050004090
:10387000CA6F000000C00040C56F0000001000408B
:10388000C06F000000E001400400FA0530B5046894
:10389000CCB1BFF35B8FB4FA84F3C3F11F03DBB287
:1038A00001229A4024EA020250E8005FA54204D1B6
:1038B00040E8002CBCF1000FF6D1BFF35B8FE6D1DE
:1038C00002480B7030BD0248FCE700BF0000AD0BA2
:1038D0000200AD0B10B50368CB40DB0714D4012305
:1038E0008B400268BFF35B8F43EA020150E8004F50
:1038F000944204D140E8001CBCF1000FF6D1BFF3A4
:103900005B8FEED1014810BD0148FCE70000AD0B14
:103910000400AD0B014BC3F80405704700F00140F3
:10392000F7B5044618B1012823D003B0F0BD4FF01D
:1039300080430222C3F80823C3F80401D3F804210A
:103940000122DA60064601238DF8073042F2107535
:103950004FF08047D4B1012CE7D1D7F80C3403F4F1
:103960008033AEBB83B3012002F06AFC013DF4D189
:103970002AE04FF080430022C3F80803C3F8002177
:10398000D3F8002158600DF10706DCE7D7F81834AA
:1039900003F480333EB9002BC7D0012002F050FC65
:1039A000013DF3D1C1E7D7F8182402F003023260D9
:1039B000002BBAD09DF80700012803D102F040FC8B
:1039C000013DC7D1012CB0D1054B00225A71ACE7A3
:1039D000D7F80C2402F001023270002BEAD1F3E791
:1039E000400E0020044B1A7922B9012218609A80F7
:1039F0000248704702487047400E00200000AD0B9F
:103A00000C00AD0B38B510B1012843D038BD4FF0D4
:103A10008042D2F81814D2F81834C8032ED503F017
:103A20000303012B04D013B10020FFF779FF00231B
:103A30004FF08042C2F818350023C2F80431D2F8A2
:103A400004310223C2F80433184AD2F8FC0040F0D3
:103A50008073C2F8FC30164B1C6844F001011960F9
:103A60005D685968491BB1F50A5FFAD31C604FF0D5
:103A70008043C2F8FC0001229A60C7E7D2F81434F0
:103A8000D907D4D5D2F81C349B07CDD40223C2F871
:103A90000433BBE74FF080430022C3F80021D3F882
:103AA0000021C3F804031860B0E700BF00ED00E098
:103AB000001000E010B54FF08043D3F800216AB148
:103AC0000022C3F80021D3F800210122C3F8082303
:103AD000114B587910B95A711B6898474FF08043C1
:103AE000D3F8042172B10022C3F80421D3F80421D1
:103AF000D3F81824D3F81824920704D10122C3F86C
:103B000018259A6010BD0222C3F80823024BBDE8B5
:103B100010401B6801201847400E0020C0B2034B24
:103B2000083033F81000C0F3401070473400002014
:103B3000C0B2034B083033F81000C0F340007047A8
:103B400034000020C0B2034B083033F81000400BA3
:103B5000704700BF3400002070B500F108030C4C22
:103B600034F81330DA0505460E4607D5C3F3432370
:103B700004EBC30254F8333052689847A3682BB162
:103B8000E26831462846BDE87040184770BD00BF66
:103B90003400002010B4C0B2114A083032F810309E
:103BA000D9051BD5C3F3432123F4F85322F8103071
:103BB00002F10E04002034F8023F13F4807F03D09A
:103BC000C3F34323994209D001302028F3D10023C5
:103BD00042F83130034810BCFFF77CBE10BC704780
:103BE0003400002088000020F0B50146104A114C36
:103BF00000200125064602F14043A3F5C2439B087D
:103C000005FA03F3194204D0176817B11660176854
:103C100018430432A242EED1074BD3F87C2132B1D3
:103C20000022C3F87C21D3F87C3140F00040F0BD85
:103C3000006100402061004000600040F0B5044693
:103C400085B017461D4601B3FFF772FF18B1204635
:103C5000FFF764FF08BB0023CDE900338DF80E3079
:103C60008DF80F300DF10F020B4620460DF10E01BD
:103C700002F00BFBE3B24449083331F8132022F081
:103C8000020242F0010221F8132057B320463E7889
:103C90007A68FFF74DFF10B1C2B13C4823E0E3B2B0
:103CA000DFF8E4C008333CF8131021F02001C90408
:103CB000C90C2CF813104AB1032EEED87A68177885
:103CC0009EB9334B07F5A27743F82760E3B22E493C
:103CD000083331F8132022F01C0242EA860221F850
:103CE00013203DBB2B4805B0F0BDBA0002F1804265
:103CF00002F5C04241EA4731D2F8100520F0030036
:103D0000C2F81005D2F8100520F4473020F44070B6
:103D1000C2F81005D2F810E5200200F4F85040EA8D
:103D20000E0040EA064041F020012CF81310C2F8C2
:103D30001005CBE7D5E900672046FFF72BFF002EE3
:103D4000D0D0114DD5E90023964201D19F4219D020
:103D500011480DF10F01FFF799FD0E4B9842C2D1AA
:103D60009DF80F2045F83260E4B205EBC203083439
:103D70005F6035F8143043EA422343F4807325F83A
:103D80001430AFE70022EDE7340000200400AD0B53
:103D9000006000400000AD0B88000020F0B5044634
:103DA00085B0164629B3FFF7C3FE20B92046FFF7BA
:103DB000B5FE00285FD1E5B2304F083537F8153031
:103DC00013F01C0F02D04B78012B54D001238DF837
:103DD0000F300023CDE900134A1C8B1C20460DF147
:103DE0000F0102F052FA37F8153043F0030327F8B9
:103DF000153016B9224805B0F0BD2046FFF798FEF1
:103E0000C8B3E5B21D4F96F800C00835614637F8D3
:103E10001500890020F0200001F18041C00401F567
:103E2000C041C00C27F815000023C1F81035727886
:103E3000002ADFD0D1F81035B67823F4981323F494
:103E4000F853C1F8103512042302D1F810E502F43A
:103E5000403203F4F8531343320543EA0E0302F4ED
:103E6000801240EA4C30134340F0200027F8150040
:103E7000C1F81035BEE70348BDE700BF340000209D
:103E80000000AD0B0400AD0B014BC3E9020170470C
:103E90003400002008B50246FFF740FE40B1D2B220
:103EA000044B0548083233F812305B0B0B7008BD29
:103EB0000248FCE7340000200000AD0B0400AD0B0D
:103EC00070B50F4C94F85860BEB90E4D4022314683
:103ED00004F1100001F087FEC5F87C610620D5F8DA
:103EE0007C31FDF7C7FF4FF00043C5F804330648A7
:103EF000012384F85830636570BD0448FCE700BFB7
:103F000034000020006000400000AD0B0500AD0B48
:103F1000034B93F85800003818BF0120704700BFCA
:103F20003400002001460148FFF7D4BC8400002083
:103F300001460148FFF7AABC8400002037B50446BB
:103F4000FFF7ECFD08B32046FFF7F2FD0546E0B9A8
:103F50002046FFF7F7FD03B29B0003F1804202F514
:103F6000C24203F1804303F5C04315601268D3F8E1
:103F7000102542F00102C3F8102521B1134A012394
:103F80008340C2F8043303B030BDE3B2104A0833B3
:103F900032F81330C3F38203042B12D0052B12D056
:103FA00001A8019402F067F9019BD0F81015D940DF
:103FB00001F001010231204603B0BDE8304002F0BB
:103FC000ADB90321F7E70221F5E700BF006000402B
:103FD0003400002008B50246FFF7A0FDC0B110462E
:103FE000FFF7A6FDA0B91046FFF7ACFD0B4A012371
:103FF0008340C2F8083303B29B0003F1804303F50A
:10400000C043D3F8102522F00302C3F8102508BDE1
:10401000BDE808400021104602F080B90060004071
:1040200073B5C5B2174E0835044636F81530DB07B0
:1040300026D5FFF7CFFF2046FFF770FD40B12046A1
:10404000FFF780FD104B00F5A270002243F82020FE
:104050002046FFF79FFD002301A826F815300194A4
:1040600002F009F9019B00EB8300084BD0F8002710
:10407000134043F00203C0F80037054802B070BD9A
:104080000448FBE73400002000600040F0F8FCFF2B
:104090000000AD0B0400AD0B2DE9F347534BD3F8F3
:1040A0000403C0B240F00040FFF79EFD051E1ADA7F
:1040B0004FF0A043DFF83881D3F820250092C3F8F1
:1040C00020250127009CA4B94FF00040FFF78CFD8C
:1040D0004FF0A042D2F820350093C2F82035002BD3
:1040E000EFD125F000450124002D66D102B0BDE8D6
:1040F000F08794FAA4F4B4FA84F4E00804F1080315
:1041000004F0070238F813901DF80030019407FA04
:1041100002F223EA02030DF8003001A802F0ABF826
:10412000019B03F5E0734FEA990150F82360C9F34E
:10413000820A4B07D146C6F3014623D52046514695
:10414000FFF70AFD01A8019402F095F8019B03F521
:10415000E073F6B250F82330C3F301439E4207D117
:104160000021204602F0DAF83146204602F0D6F867
:1041700001A8019402F07FF8019B07FA03F3C0F84D
:1041800020359FE7022E0CD10321204602F0C6F80D
:104190000AF00503012BEBD149462046FFF7DCFC72
:1041A000E6E70221204602F0B9F8BAF1030FF3D096
:1041B000032EDDD1BAF1020FEDE795FAA5F3B3FABC
:1041C00083F304FA03F29B0003F1804303F5C04339
:1041D00025EA0205D3F81005D3F81015C0F3042022
:1041E000C1F30141FFF7B8FC7EE700BF006000406B
:1041F00034000020044AD2F80034DB07FBD501600C
:10420000BFF35F8F704700BF00E001404FF0805365
:104210001A69B0FBF2F302FB130373B9084B0222D5
:10422000C3F80425C3F80805D3F80024D207FBD54A
:1042300000220448C3F8042570470348704700BFB4
:1042400000E001400000AD0B0A00AD0B10B5054CBD
:104250000123C4F80435FFF7CDFF0023C4F804356B
:1042600010BD00BF00E0014001460148FFF70EBB52
:104270009000002010B5144CA8220021204601F027
:10428000B2FC03232361114A6361114BA261E36114
:104290004FF4806323620023A3626362E3622266B9
:1042A0000C4A62661022A2662367E3666367BFF367
:1042B0005F8F094A12F8011DE1540133102BF9D127
:1042C000BFF35F8F10BD00BF480E0020FD6F0000E0
:1042D00008100020F80F002016700000104B70B579
:1042E00053F82040013053F82060A64200D870BD3A
:1042F000D4E9003595B153B12846984738B1002824
:10430000B8BF4042EB68FF28A8BFFF201870EA68DA
:10431000537843F0010353700834E6E79847FBE70E
:104320006C69000008B5094B012203201A70FFF7E1
:10433000D5FF00F01FF90420FFF7D0FFFCF738F895
:10434000034A137B23F00103137308BD08140020F4
:10435000C800002008B50348034A0021121A02F0E1
:1043600021F808BDA80000200C14002008B500208A
:10437000FFF7B4FF184B83F30888184C636943F4C4
:10438000007363610025E02384F82230E577257609
:104390006576A57684F82050636A43F4E02363626F
:1043A00084F82350FDF760FFFDF752FD4FF0FF3317
:1043B000A362E362FEF766F8FDF7F4FF01F0D6FFB3
:1043C0000120FFF78BFF0220FFF788FF04482B46F0
:1043D0002A462946FDF7DCFD801C002000ED00E0A8
:1043E0002543000008B50648064A0749121A01F09D
:1043F000DBFFBDE80840054A0549064801F0D4BF87
:1044000000000020A4000020447000000000000014
:104410004470000000000020034B1B680BB9FEF73E
:10442000C5BF0020704700BFF00E002010B50E4B36
:104430001C689C4204D1FFF7EFFF6FF0004010BDF5
:10444000FFF7EAFF002CF8D0D4E904321B1A62EB24
:10445000E072B3F1004F72F10001EEDA002AACBF56
:1044600018460020EBE700BF9400002030B570B183
:104470000B4B5B6898420AD0036843B1D3E904212F
:10448000D0E90445121941EB0501C3E90421D0E943
:10449000003213605A600023C0E9003330BD00BF12
:1044A000940000202DE9F84F4FF02003EFF3118C1A
:1044B00083F31288BFF36F8FDFF8ACA0DFF8AC9006
:1044C0002B4FC9F80000DAF800000024504508BF5F
:1044D00000200025D7E90021D9F80030E04680B35C
:1044E000D0E9046C4FEAE37EB3427EEB0C0B05DAB5
:1044F000F61A6CEB0E04C0E9046422E0B21841EB3A
:10450000E671C0E90445C7E90021FFF7AFFF88F372
:104510001188BFF36F8F836898474FF02003EFF344
:10452000118883F31288BFF36F8FD9F80030DAF85F
:1045300000009B1B5045C446C9F80030CAD1D7E9DA
:1045400000219A1841EBE3730024C7E90023C9F85E
:104550000040FFF76BFF2146FEF7F4FE88F3118859
:10456000BFF36F8FBDE8F88F94000020F00E00209D
:1045700048010020014801F0A0B900BF1A700000F6
:104580000020704730B583688B4285B004461546DD
:104590000ED96368C068194401AA01F038FC28B933
:1045A0006268019B9B1A2B60029B6B6005B030BD5B
:1045B0006FF02100FAE770472DE9F7430E461746E2
:1045C0009946044628B94FF0FF38404603B0BDE88D
:1045D000F0830029F7D0002AF5D0CB680D891D445F
:1045E00004230DEB03022946384601F05BFA8046AE
:1045F0000028E8D1BDF80410738946F608129142EC
:1046000025D1BDF806109942DDD104230DEB03023C
:104610002944384601F046FA0028D4D1BDF80420D8
:1046200046F607139A42CED1C4E900679DF82830B8
:10463000A4F80890A3727389BDF806202B44E360A8
:10464000738913442B44043563612561BDE7002B56
:10465000E4D0B8E72DE9F3410E4617461D4604465F
:1046600020B94FF0FF3002B0BDE8F0810368002BA5
:10467000F7D04368002BF4D04FF6FF78D4E9042339
:104680009A4216D223685B8923B1E368934204BF40
:10469000043323610423216960680DEB030201F0F8
:1046A00001FA0028DDD1A37A2BB1D4E903329A4272
:1046B00001D30120D7E72389BDF80610434501F156
:1046C000040203D0BDF804C09C450BD115B1BDF860
:1046D00004302B8023690433336039802369134409
:1046E0002361C0E7236913442361C7E773B50C4610
:1046F00006461146022301AA204600F00EFA05469E
:10470000E8B9019A1F2A0ED92368A2F120011944A1
:104710002022304601F05CFA2368019A134423609A
:10472000284602B070BD0146C2F12002304601F0B9
:104730005AFA019A2168C2F120003044EAE76FF08A
:104740000205EDE701F034BA4FF4C073584330303E
:10475000704710B5044601F0E3F9A3684FF4C07246
:10476000303B02FB103010BD70B50D46044601F021
:10477000A5FC2A46A0F1080104232046BDE87040AC
:1047800001F090B913B50446019101F097FC0423A0
:10479000A0F108010DEB0302204601F0D2FC02B0AB
:1047A00010BD70B513460E4615460021024604465C
:1047B000FCF7C8FA50B92B4604F12C02012120461F
:1047C000FCF7C0FA10B1002E08BF002070BD73B511
:1047D000044600200D461646FBF76AFE6946C0B245
:1047E000FDF7DEFA30BB2C2303FB05440098E36899
:1047F00025891D4404230DEB0302294601F052F9DB
:10480000C0B9BDF804206489009846F608139A429E
:1048100015D1BDF806309C420CD104230DEB0302E8
:10482000611901F03FF928B9BDF8042046F60713D5
:104830009A4207D0009801F034F902B070BD002C04
:10484000F2D0F7E7BDF80610214429443160F1E7C2
:1048500037B50446426A802501A902200195FDF77B
:10486000C7FA58B9019B226DA36201A905200195E1
:10487000FDF7BEFA054628B1092500E001252846C6
:1048800003B030BD019B206A636501F049F9E06522
:10489000F5E70123036003F1012343600023C0E92E
:1048A000023370474379012B07D10368012B04D1F0
:1048B0000079431E584258417047002070477FB529
:1048C00006460D46022001A9FDF76AFA38BB019899
:1048D000FFF73FFFF16D0446284600F0BFF804449F
:1048E000019801F01DF90646019801F020F908220F
:1048F00001460DEB020001F076F92B798DF80830B6
:1049000021460198334602AA01F0E1F8041E0198FD
:1049100018BF012401F0C5F8204604B070BD012481
:10492000FAE701F0E9B82DE9F8430E460021074601
:104930000846FBF7BDFD012104460020FBF7B8FD4A
:1049400033789C4221D0984221D101252C2303FBAE
:104950000575F86DAC6AFFF7F7FE013C07464FF0AE
:1049600000086B6A03EBC40253F83410D2F80490C9
:104970001B684A46C91A3046C844FFF7D2FFB845FB
:1049800004F1FF34EDD3BDE8F8830025DEE7012014
:10499000F9E737B515460C460520694601F014FCC9
:1049A000E979012903D00022204601F021FC9DF87D
:1049B0000330012B02D1204601F0F9FBA968204603
:1049C000FFF7E0FE2046FEF713FD002003B030BDE8
:1049D00073B50D460646FCF7B5FA0446E86050B3D9
:1049E00002282DD101A9FDF7DBF958BB01982A4611
:1049F0003146FCF70DFA0446D0B9019801F05EFB90
:104A0000012301460DF10302019801F04BF8044621
:104A1000A0B9019801220DF1030101F063FB10B16F
:104A200001238DF803309DF8033003F00F03EB7181
:104A3000019801F036F8204602B070BD0124F7E776
:104A40000724F8E70124F6E7436A00205A68034682
:104A500013448B4200F10100FAD3704710B543793B
:104A60000279012B14BFCB01002302F1FF3201FBBD
:104A70000233026814BF4C000C46013A04FB0230BA
:104A800010BD70B50368CD1A002D02DC6FF05F0019
:104A900070BD93F900601C78002E0ADB5C1C04607A
:104AA0001B7813600368C91A13688B42EED8002084
:104AB000EEE704F07F04013C032C2BD8DFE804F080
:104AC000020A1421012DE1D05B78136003680233E0
:104AD0000360E7E7022DD9DDB3F801305BBA9BB282
:104AE000136003680333F3E7032DCFDD9C785D7813
:104AF000DB78240244EA054423431360036804334B
:104B0000E6E7042DC2DDD3F801301BBA1360036859
:104B10000533DDE76FF06300BAE770B404680E1B7D
:104B2000002E07DD26789E4208D10134046070BC57
:104B3000FFF7A7BF6FF05F0070BC70476FF06100B8
:104B4000FAE738B503230446FFF7E7FF18B91368FF
:104B500013B96FF0670038BD013B136023681A7802
:104B6000002AF6D101332360F5E72DE9F3419046A1
:104B70001F4601AA302305460E46FFF7CEFF044626
:104B8000F0B92B68F61A002E34DD42461B7842F845
:104B9000043B019B2E681E44314606232846FFF73E
:104BA000BCFF044660B92B68D8F80420C8F8083068
:104BB0009918B142296007D10C213846FCF76CFBEB
:104BC000204602B0BDE8F0819B5C3A46314642F88F
:104BD000043B2B6801332B602846FFF752FF60B976
:104BE0002B687A68BB601344B3422B6018BF6FF028
:104BF0006504E5E76FF05F04E2E70446E0E7F0B53F
:104C000000240646204665B2AB4200DCF0BD51F8F8
:104C1000247052F824503D440544AF4200F0010096
:104C200018BF002046F8245088BF40F0010001342E
:104C3000E9E700EB81010023884200D3704751F877
:104C4000042D43EA52030B60D307F5E770B5036800
:104C5000DB070546144604D4BDE870401146FFF753
:104C6000E8BF13460A460146FFF7C9FF214606463C
:104C70002846FFF7DEFF46B104F18044013C55F8B9
:104C8000243043F0004345F8243070BD4FF0000C51
:104C90002DE9F74F654664464FFA8CF94B4516DC13
:104CA0004FF0FF3606EB430601964FF00008019FD8
:104CB00053FA88FE4FFA8EFEBE455FFA88F628DB6F
:104CC00000EBC30040F8044C03B0BDE8F08F4FF098
:104CD000000E02EB8C0AF04651F82E705AF8046967
:104CE000A6FB076736190EF1010E6F4134464FFAE5
:104CF0008EF64FF0000B28BF4FF0010B4E45D84405
:104D00003D46E9DD40F82C4045460CF1010C3C469F
:104D1000C2E70136A94676B202EB8E0A002577B2C9
:104D2000BB4205DC40F82E4008F101084C46BEE7C6
:104D30006FF00307774351F826C05AF80770A7FBB6
:104D40000C7C3F195CEB090C4FF0000B28BF4FF0B7
:104D5000010B5D44E1463C460136E0E7002310B517
:104D60001C465AB2914200DC10BD40F8234001338A
:104D7000F7E710B500231A465CB2A14203DCB2FA91
:104D800082F0400910BD50F8234001332243F3E77D
:104D90004A11012350F8220001F01F018B401840F6
:104DA00070474B1E10B55BB2041D1A0603D45A1E81
:104DB00054F8221071B101335BB283B103F1804228
:104DC000013A50F82210002231B9013B02EB4312A4
:104DD00010B210BD1346E8E749080132F4E718465F
:104DE000F7E710B500235CB2A24200DC10BD51F819
:104DF000234040F823400133F5E710B5013A52B2A1
:104E0000130601D5002010BD50F8224051F8223081
:104E10009C4205D802F1FF32F2D24FF0FF30F2E7A8
:104E20000120F0E730B5013A52B20023140603D551
:104E3000181E18BF012030BD50F8224051F82250F2
:104E40006C402343013AF1E7F0B5002406469C4646
:104E5000204665B2654500DBF0BD51F8247052F87C
:104E600024303D1AED1AAF4200F0010018BF0020B7
:104E700046F8245038BF40F001000134E9E770B52E
:104E80009DF910601D4633460446FFF7B8FE30B961
:104E9000324621462846FFF7B0FF012807D03346A7
:104EA0002A4621462046BDE87040FFF7CDBF70BDC1
:104EB00070B59DF910601D4633460446FFF7C4FFE8
:104EC00038B133462A4621462046BDE87040FFF7F8
:104ED00096BE70BD2DE9F04FA5B01D4614ABCDE9CF
:104EE00002310190294610461746FFF75AFFC0EBE2
:104EF000851424B2002C2146B8BF04F11F0163427F
:104F000003F01F0341F3471104F01F0604A858BF24
:104F10005E42FFF723FF002E4FEA81002DDD04AB38
:104F200000221844C6F1200E13469D421AD804AB45
:104F300003EB850300936F1E24AB4FEA45084FEA4D
:104F40008509012603EB8707002C53DA24AB03EB1A
:104F50008606019856F8881C2A46FFF742FF25B0BE
:104F6000BDE8F08F57F823C00CFA06F10A4340F869
:104F7000042B01332CFA0EF2D7E704AB2A4639464C
:104F80001844FFF72EFFD2E75AF8883C53F8202048
:104F900024AB03EB80030CF1010C53F8803C0B4471
:104FA000D31A34BF4FF0010B4FF0000B9A425EF85A
:104FB000882C42F8203018BF59464FFA8CF04045F3
:104FC000E2DB731A5E42294604A85E41FFF731FE18
:104FD00009F190036B44009853F8802C57F8803CFB
:104FE000294643EAC273013C47F8803C24B2FFF7EC
:104FF00020FEA9E724AB4FF0000CC6F1010E61467C
:1050000003EB860A03EB8E0ED7E730B591B004466A
:105010001D4668469DF95030FFF738FE2A4669461E
:105020002046FFF757FF11B030BD30B51C4691B098
:10503000054693F900306846FFF728FED4F8AC30F7
:1050400069462846984711B030BD13460A46FFF717
:10505000ECBF2DE9F04793F9006092B00446894611
:105060001046314615461F46FFF783FE002840F0E4
:1050700091803A46494602A8FFF7E7FF3B4602AA5D
:1050800021460AA8FFF7D1FF02A908463A46FFF7D2
:10509000DCFF3B462A4649464846FFF7C6FF07F174
:1050A00004083A4629462846FFF7CFFF43462A46DA
:1050B000214620460096FFF7E2FE43462A4629464F
:1050C00028460096FFF7DBFE43462A46214628463F
:1050D0000096FFF7EDFE3B462A4621462046FFF7A5
:1050E000A4FF43462246214628460096FFF7C7FE06
:1050F000434600962A4621462046FFF7C0FE236815
:10510000DB074AD53346424621462046FFF777FD66
:10511000314682462046FFF78CFD06F18043013B75
:1051200054F8232042EACA7244F823203A46214622
:105130002846FFF78AFF43460AAA294628460096D2
:10514000FFF7B6FE43460AAA294628460096FFF70F
:10515000AFFE0AA9084643462A460096FFF7A8FE76
:105160003B460AAA21462046FFF75FFF02AA4346B4
:10517000104621460096FFF79BFE32462946204600
:10518000FFF72FFE49462846FFF72BFE02A94846A7
:10519000FFF727FE12B0BDE8F08731462046FFF743
:1051A00048FDC3E72DE9F04115468AB004460E4696
:1051B0001C22002103A800F016FD2F1D95F9008088
:1051C00003232A46314620460293FFF73EFF3B4623
:1051D00002AA21462046CDF80080FFF769FE2B4643
:1051E000324621462046FFF720FFCDF800803B469F
:1051F00005F1840221462046FFF741FE0AB0BDE8D2
:10520000F081F0B50F46A1B006461946384615465E
:105210001C46FFF7AEFD28B1304621B0BDE8F04096
:10522000FFF79CBD224639466846FFF7DAFD29465E
:1052300008A8FFF7D6FD10A82146FFF78FFD012330
:1052400018A81093FFF78AFD224608A96846FFF7C1
:10525000D4FD30B9224610A93046FFF7C2FD21B077
:10526000F0BD009BDA0709D421466846FFF7E1FC50
:105270002246294610A8FFF7E9FCE5E7089BDB0773
:1052800007D4214608A8FFF7D4FC2246294618A8CF
:10529000F1E7002823461CDD08AA69466846FFF7A7
:1052A000D3FD21466846FFF7C4FC224618A910A882
:1052B000FFF7A3FD002805DA10A923462A46084671
:1052C000FFF79DFC10A9234618AA0846FFF7BCFD6E
:1052D000CEE76A4608A8FFF7B7FD214608A8FFF702
:1052E000A8FC224610A918A8FFF787FD002805DAB8
:1052F00018A923462A460846FFF781FC18A9234629
:1053000010AA0846FFF7A0FDBFE7F0B5154689B023
:105310001C4607460E461A4629466846FFF795FE84
:1053200023466A4639463846FFF77FFE23462A461B
:1053300069466846FFF779FE23466A46314630469D
:10534000FFF773FE09B0F0BD2DE9F0478AB01446AF
:10535000DDF848A055461F4615F9046B00968046B7
:1053600089462B460246214602A8FFF7A1FD02A965
:1053700052460846FFF769FE534602AA4146404698
:10538000FFF753FE534602AA21462046FFF74DFE83
:105390002B464A46394638460096FFF789FD524665
:1053A000394602A8FFF751FE02A92B46424608469D
:1053B0000096FFF77DFD02A92B462246084600967F
:1053C000FFF776FD2B464246214620460096FFF722
:1053D0006FFD5346224649464846FFF726FE2B46B8
:1053E00002AA414620460096FFF762FD5346224638
:1053F00039463846FFF719FE2B464A4639463846A5
:105400000096FFF755FD324602A92046FFF7E9FC5A
:105410000AB0BDE8F087F8B50E46D11C48BF911D13
:1054200041F387011446FFF799FC0025671E6AB215
:10543000A24205F1010500DBF8BDBB1A23F0030110
:10544000B25C03F00303DB009A404358134343501C
:10545000EDE72DE9F0471F46B3F9023013F11F04C1
:1054600048BF03F13E046511DC1D48BF03F10E0483
:10547000E41094424FFA85F928BF14460646884640
:105480004946FFF76BFC224641463046FFF7C3FF13
:10549000B7F90220B2EBC40F4FEAC40320D29B1A23
:1054A00006EB85040021C3F12005A6420FD3243763
:1054B0004A4631463846FFF7A0FC012810D04B463B
:1054C0003A4631463046BDE8F047FFF7BDBC54F8D8
:1054D000040D20FA03F20A43226000FA05F1E4E722
:1054E000BDE8F0872DE9F04FFDB01F46869D07927D
:1054F000B5F9023095F90040049113F11F0648BF39
:1055000003F13E0646F3471606F1FF3B7CAA02EB89
:105510008B0200230DF1900842F8C03C42F8A03CF9
:10552000014695F9012048F82B3081466CA8FFF719
:1055300072FFA30095F9012006936CAB03EB840383
:10554000184609EB02010393FFF765FF95F9012067
:1055500039464CA8FFF75FFF95F9012054A8B91808
:10556000FFF759FF21464CA8FFF703FC18B10020B4
:105570007DB0BDE8F08F214654A8FFF7FAFB0290FA
:105580000028F4D105F1240A32464CA95046FFF711
:1055900034FC0128EBD1324654A95046FFF72DFCCC
:1055A00001280590E3D10CAF3346524654A91CA8FC
:1055B000FFF727FE029B47F82B303846079A0499DD
:1055C0002B46FFF746FF3946384653461CAA00963D
:1055D000FFF71BFD0DF5B87953461CAA4CA914A87A
:1055E0000096FFF712FD484622466CA9FFF7F9FB2B
:1055F000A30009EB030B584603992246FFF7F1FB82
:1056000005F144031946224634A80393FFF7E9FB4A
:10561000039BA100591822463CA8FFF7E2FB2B1D73
:10562000494634AA1CA800940493FFF741FC5B464A
:105630004A463CA934A80095FFF786FE1CA90846F7
:1056400023462A1DFFF7DDFD1CAA594648462B4676
:10565000FFF75BFE029B0893039B099331466CABFB
:105660003846CDE90A39FFF79CFB3146814614A83C
:10567000FFF797FB8145B8BF81461FFA89F909F109
:10568000FF3109B238460291FFF782FB02990746C3
:1056900014A8FFF77DFB003818BF0120003F18BF9A
:1056A000012747EA40070DF1200B22465BF82770DF
:1056B00040463946FFF795FBA300F91822462CA86F
:1056C000FFF78FFB21461CA8FFF748FB059B1C93A7
:1056D000A9F102090FFA89F9B9F1000F21DA1CA921
:1056E0000846049A2346FFF78CFD2B461CAA2CA9DA
:1056F0004046FFF70AFE324641465046FFF77DFB23
:10570000012805D03346524641464046FFF79CFBF0
:1057100022464CA94046FFF785FBB0FA80F04009CD
:1057200026E72B461CAAD5F8A4702CA94046B847FA
:1057300049460CA8FFF72CFB4946074614A8FFF77B
:1057400027FB003818BF0120003F18BF012747EA98
:10575000400708AB53F8277027B32246394634A8D0
:10576000FFF73FFB069B2246F9183CA8FFF739FBE1
:105770002B461CAA3CA934A8FFF7C7FD049B009444
:1057800034AA414644A8FFF793FB2CAB42463CA900
:1057900034A80095FFF7D8FD1CA92B4644AA08465B
:1057A000FFF743FC09F1FF3994E7F8B50C4610B157
:1057B000F9B10AB90120F8BD8D1800F128060027BB
:1057C000836E5A1C8266034414F8011B83F8281068
:1057D0003F2A0BD93146FBF72FFED0E9083213F5EB
:1057E000007342F10002C0E908328766A542E7D1A2
:1057F000E0E70846DFE7F8B50C460546002855D037
:10580000002954D08B6ED1E90821D800121841F13B
:105810000001581C2344C4E9082138284FF08002B5
:10582000A0664FF0000783F8282004F128060AD963
:10583000C0F140023946304400F03BF83146204682
:10584000FBF7FAFDA766A06E0021C0F138023044D4
:1058500000F02FF8236A1ABA636A62661A0A84F89B
:10586000633084F862201A0C1B0E84F860303146D5
:1058700084F861202046FBF7DFFD2B1D211F243516
:1058800051F8042F03F8012C100E03F8040C100C2F
:1058900003F8030C100A03F8020C0433AB42EFD1F7
:1058A00020467022002100F004F80120F8BD0846CF
:1058B000FCE700F098B9002070470FB407B504A9C1
:1058C00051F8040B0191FBF72BFF03B05DF804EBDB
:1058D00004B07047038B13F0070305D10368002B56
:1058E0000CBF002003207047022B05D1408BB0FA7B
:1058F00080F0400980007047012B05D10368002B20
:105900000CBF0020052070470020704710B50C46E2
:1059100000B111B96FF0150010BD081D00F095F829
:105920000028F9D1A368032BF6D9F3E72DE9F0415C
:105930000D4607461946281D90461E4600F096F86B
:10594000044638B13346424629463846A446BDE8A7
:10595000F0416047BDE8F08110B44FF02004EFF350
:10596000118284F31288BFF36F8F416110BC012153
:10597000FBF7E4BE38B50C46054658B151B10B688B
:1059800043B14B6833B11C22002100F02CF92C618B
:10599000002038BD6FF01500FBE770B505460E46D8
:1059A000FFF7B4FF041E15DB4FF02003EFF3118265
:1059B00083F31288BFF36F8F6B8B2C8B4FF6FF71C5
:1059C0008B4204F0070407D182F31188BFF36F8F75
:1059D0006FF00A04204670BD022C0CD101336B839A
:1059E00082F31188BFF36F8F002322463146284689
:1059F000FFF79CFFEEE7062C14D8DFE804F0041351
:105A00001313041A0400002333606B683BB9C5E923
:105A10000066ACB902212846FBF790FEDAE71E606B
:105A20006E60F6E782F31188BFF36F8F6FF00404A6
:105A3000D0E782F31188BFF36F8F6FF08504C9E759
:105A400082F31188BFF36F8FC4E7034658B14268F1
:105A500002F00302012A03D0032A04D1026812B122
:105A60000020986070476FF01500704742688160B1
:105A700002F00302032A4FF0000203460CBF006845
:105A800010465A60704770470FB407B504A951F823
:105A9000040B0191FBF744FE03B05DF804EB04B086
:105AA00070477047002930B4044618460BDBA568E0
:105AB0000844A84207D8E0686468214484682468E0
:105AC000A44630BC60476FF0150030BC7047002919
:105AD00030B4044618460BDBA5680844A84207D832
